{"contracts/MerkleDistributorV3.sol":{"MerkleDistributorV3":{"abi":[{"inputs":[{"internalType":"address","name":"token_","type":"address"},{"internalType":"bytes32","name":"merkleRoot_","type":"bytes32"}],"stateMutability":"nonpayable","type":"constructor"},{"anonymous":false,"inputs":[{"indexed":false,"internalType":"uint256","name":"index","type":"uint256"},{"indexed":false,"internalType":"address","name":"account","type":"address"},{"indexed":false,"internalType":"uint256","name":"amount","type":"uint256"}],"name":"Claimed","type":"event"},{"inputs":[{"internalType":"uint256","name":"index","type":"uint256"},{"internalType":"address","name":"account","type":"address"},{"internalType":"uint256","name":"amount","type":"uint256"},{"internalType":"uint256","name":"timestamp","type":"uint256"},{"internalType":"bytes32[]","name":"merkleProof","type":"bytes32[]"}],"name":"claim","outputs":[],"stateMutability":"nonpayable","type":"function"},{"inputs":[],"name":"description","outputs":[{"internalType":"string","name":"","type":"string"}],"stateMutability":"view","type":"function"},{"inputs":[{"internalType":"uint256","name":"index","type":"uint256"}],"name":"isClaimed","outputs":[{"internalType":"bool","name":"","type":"bool"}],"stateMutability":"view","type":"function"},{"inputs":[],"name":"merkleRoot","outputs":[{"internalType":"bytes32","name":"","type":"bytes32"}],"stateMutability":"view","type":"function"},{"inputs":[],"name":"token","outputs":[{"internalType":"address","name":"","type":"address"}],"stateMutability":"view","type":"function"}],"evm":{"bytecode":{"linkReferences":{},"object":"60c060405234801561001057600080fd5b5060405161085a38038061085a83398101604081905261002f91610045565b6001600160a01b0390911660805260a05261007f565b6000806040838503121561005857600080fd5b82516001600160a01b038116811461006f57600080fd5b6020939093015192949293505050565b60805160a0516107aa6100b0600039600081816061015261027c01526000818160e8015261032c01526107aa6000f3fe608060405234801561001057600080fd5b50600436106100575760003560e01c80632eb4a7ab1461005c5780633e4fcb21146100965780637284e416146100ab5780639e34070f146100c0578063fc0c546a146100e3575b600080fd5b6100837f000000000000000000000000000000000000000000000000000000000000000081565b6040519081526020015b60405180910390f35b6100a96100a4366004610582565b610122565b005b6100b3610452565b60405161008d9190610632565b6100d36100ce366004610687565b61046e565b604051901515815260200161008d565b61010a7f000000000000000000000000000000000000000000000000000000000000000081565b6040516001600160a01b03909116815260200161008d565b61012b8661046e565b1561018e5760405162461bcd60e51b815260206004820152602860248201527f4d65726b6c654469737472696275746f723a2044726f7020616c72656164792060448201526731b630b4b6b2b21760c11b60648201526084015b60405180910390fd5b428311156101f55760405162461bcd60e51b815260206004820152602e60248201527f4d65726b6c654469737472696275746f723a2054696d657374616d702068617660448201526d32903737ba1032bc3834b932b21760911b6064820152608401610185565b60408051602081018890526bffffffffffffffffffffffff19606088901b169181019190915260548101859052607481018490526000906094016040516020818303038152906040528051906020012090506102a78383808060200260200160405190810160405280939291908181526020018383602002808284376000920191909152507f000000000000000000000000000000000000000000000000000000000000000092508591506104af9050565b6102fd5760405162461bcd60e51b815260206004820152602160248201527f4d65726b6c654469737472696275746f723a20496e76616c69642070726f6f666044820152601760f91b6064820152608401610185565b610306876104c5565b60405163a9059cbb60e01b81526001600160a01b038781166004830152602482018790527f0000000000000000000000000000000000000000000000000000000000000000169063a9059cbb90604401602060405180830381600087803b15801561037057600080fd5b505af1158015610384573d6000803e3d6000fd5b505050506040513d601f19601f820116820180604052508101906103a891906106a0565b6104005760405162461bcd60e51b815260206004820152602360248201527f4d65726b6c654469737472696275746f723a205472616e73666572206661696c60448201526232b21760e91b6064820152608401610185565b604080518881526001600160a01b03881660208201529081018690527f4ec90e965519d92681267467f775ada5bd214aa92c0dc93d90a5e880ce9ed0269060600160405180910390a150505050505050565b6040518060600160405280603581526020016107406035913981565b60008061047d610100846106d8565b9050600061048d610100856106ec565b60009283526020839052604090922054600190921b9182169091149392505050565b6000826104bc8584610503565b14949350505050565b60006104d3610100836106d8565b905060006104e3610100846106ec565b6000928352602083905260409092208054600190931b9092179091555050565b600081815b8451811015610548576105348286838151811061052757610527610700565b6020026020010151610550565b91508061054081610716565b915050610508565b509392505050565b600081831061056c57600082815260208490526040902061057b565b60008381526020839052604090205b9392505050565b60008060008060008060a0878903121561059b57600080fd5b8635955060208701356001600160a01b03811681146105b957600080fd5b94506040870135935060608701359250608087013567ffffffffffffffff808211156105e457600080fd5b818901915089601f8301126105f857600080fd5b81358181111561060757600080fd5b8a60208260051b850101111561061c57600080fd5b6020830194508093505050509295509295509295565b600060208083528351808285015260005b8181101561065f57858101830151858201604001528201610643565b81811115610671576000604083870101525b50601f01601f1916929092016040019392505050565b60006020828403121561069957600080fd5b5035919050565b6000602082840312156106b257600080fd5b8151801515811461057b57600080fd5b634e487b7160e01b600052601260045260246000fd5b6000826106e7576106e76106c2565b500490565b6000826106fb576106fb6106c2565b500690565b634e487b7160e01b600052603260045260246000fd5b600060001982141561073857634e487b7160e01b600052601160045260246000fd5b506001019056fe4d65726b6c65204469737472696275746f7220636f6e7472616374207769746820696e646976696475616c2074696d657374616d70a2646970667358221220a51f9afd6ba486edbb0fb327e8a1d4fc99c4e1acf03ef542f8044a3a033bae4f64736f6c63430008090033","opcodes":"PUSH1 0xC0 PUSH1 0x40 MSTORE CALLVALUE DUP1 ISZERO PUSH2 0x10 JUMPI PUSH1 0x0 DUP1 REVERT JUMPDEST POP PUSH1 0x40 MLOAD PUSH2 0x85A CODESIZE SUB DUP1 PUSH2 0x85A DUP4 CODECOPY DUP2 ADD PUSH1 0x40 DUP2 SWAP1 MSTORE PUSH2 0x2F SWAP2 PUSH2 0x45 JUMP JUMPDEST PUSH1 0x1 PUSH1 0x1 PUSH1 0xA0 SHL SUB SWAP1 SWAP2 AND PUSH1 0x80 MSTORE PUSH1 0xA0 MSTORE PUSH2 0x7F JUMP JUMPDEST PUSH1 0x0 DUP1 PUSH1 0x40 DUP4 DUP6 SUB SLT ISZERO PUSH2 0x58 JUMPI PUSH1 0x0 DUP1 REVERT JUMPDEST DUP3 MLOAD PUSH1 0x1 PUSH1 0x1 PUSH1 0xA0 SHL SUB DUP2 AND DUP2 EQ PUSH2 0x6F JUMPI PUSH1 0x0 DUP1 REVERT JUMPDEST PUSH1 0x20 SWAP4 SWAP1 SWAP4 ADD MLOAD SWAP3 SWAP5 SWAP3 SWAP4 POP POP POP JUMP JUMPDEST PUSH1 0x80 MLOAD PUSH1 0xA0 MLOAD PUSH2 0x7AA PUSH2 0xB0 PUSH1 0x0 CODECOPY PUSH1 0x0 DUP2 DUP2 PUSH1 0x61 ADD MSTORE PUSH2 0x27C ADD MSTORE PUSH1 0x0 DUP2 DUP2 PUSH1 0xE8 ADD MSTORE PUSH2 0x32C ADD MSTORE PUSH2 0x7AA PUSH1 0x0 RETURN INVALID PUSH1 0x80 PUSH1 0x40 MSTORE CALLVALUE DUP1 ISZERO PUSH2 0x10 JUMPI PUSH1 0x0 DUP1 REVERT JUMPDEST POP PUSH1 0x4 CALLDATASIZE LT PUSH2 0x57 JUMPI PUSH1 0x0 CALLDATALOAD PUSH1 0xE0 SHR DUP1 PUSH4 0x2EB4A7AB EQ PUSH2 0x5C JUMPI DUP1 PUSH4 0x3E4FCB21 EQ PUSH2 0x96 JUMPI DUP1 PUSH4 0x7284E416 EQ PUSH2 0xAB JUMPI DUP1 PUSH4 0x9E34070F EQ PUSH2 0xC0 JUMPI DUP1 PUSH4 0xFC0C546A EQ PUSH2 0xE3 JUMPI JUMPDEST PUSH1 0x0 DUP1 REVERT JUMPDEST PUSH2 0x83 PUSH32 0x0 DUP2 JUMP JUMPDEST PUSH1 0x40 MLOAD SWAP1 DUP2 MSTORE PUSH1 0x20 ADD JUMPDEST PUSH1 0x40 MLOAD DUP1 SWAP2 SUB SWAP1 RETURN JUMPDEST PUSH2 0xA9 PUSH2 0xA4 CALLDATASIZE PUSH1 0x4 PUSH2 0x582 JUMP JUMPDEST PUSH2 0x122 JUMP JUMPDEST STOP JUMPDEST PUSH2 0xB3 PUSH2 0x452 JUMP JUMPDEST PUSH1 0x40 MLOAD PUSH2 0x8D SWAP2 SWAP1 PUSH2 0x632 JUMP JUMPDEST PUSH2 0xD3 PUSH2 0xCE CALLDATASIZE PUSH1 0x4 PUSH2 0x687 JUMP JUMPDEST PUSH2 0x46E JUMP JUMPDEST PUSH1 0x40 MLOAD SWAP1 ISZERO ISZERO DUP2 MSTORE PUSH1 0x20 ADD PUSH2 0x8D JUMP JUMPDEST PUSH2 0x10A PUSH32 0x0 DUP2 JUMP JUMPDEST PUSH1 0x40 MLOAD PUSH1 0x1 PUSH1 0x1 PUSH1 0xA0 SHL SUB SWAP1 SWAP2 AND DUP2 MSTORE PUSH1 0x20 ADD PUSH2 0x8D JUMP JUMPDEST PUSH2 0x12B DUP7 PUSH2 0x46E JUMP JUMPDEST ISZERO PUSH2 0x18E JUMPI PUSH1 0x40 MLOAD PUSH3 0x461BCD PUSH1 0xE5 SHL DUP2 MSTORE PUSH1 0x20 PUSH1 0x4 DUP3 ADD MSTORE PUSH1 0x28 PUSH1 0x24 DUP3 ADD MSTORE PUSH32 0x4D65726B6C654469737472696275746F723A2044726F7020616C726561647920 PUSH1 0x44 DUP3 ADD MSTORE PUSH8 0x31B630B4B6B2B217 PUSH1 0xC1 SHL PUSH1 0x64 DUP3 ADD MSTORE PUSH1 0x84 ADD JUMPDEST PUSH1 0x40 MLOAD DUP1 SWAP2 SUB SWAP1 REVERT JUMPDEST TIMESTAMP DUP4 GT ISZERO PUSH2 0x1F5 JUMPI PUSH1 0x40 MLOAD PUSH3 0x461BCD PUSH1 0xE5 SHL DUP2 MSTORE PUSH1 0x20 PUSH1 0x4 DUP3 ADD MSTORE PUSH1 0x2E PUSH1 0x24 DUP3 ADD MSTORE PUSH32 0x4D65726B6C654469737472696275746F723A2054696D657374616D7020686176 PUSH1 0x44 DUP3 ADD MSTORE PUSH14 0x32903737BA1032BC3834B932B217 PUSH1 0x91 SHL PUSH1 0x64 DUP3 ADD MSTORE PUSH1 0x84 ADD PUSH2 0x185 JUMP JUMPDEST PUSH1 0x40 DUP1 MLOAD PUSH1 0x20 DUP2 ADD DUP9 SWAP1 MSTORE PUSH12 0xFFFFFFFFFFFFFFFFFFFFFFFF NOT PUSH1 0x60 DUP9 SWAP1 SHL AND SWAP2 DUP2 ADD SWAP2 SWAP1 SWAP2 MSTORE PUSH1 0x54 DUP2 ADD DUP6 SWAP1 MSTORE PUSH1 0x74 DUP2 ADD DUP5 SWAP1 MSTORE PUSH1 0x0 SWAP1 PUSH1 0x94 ADD PUSH1 0x40 MLOAD PUSH1 0x20 DUP2 DUP4 SUB SUB DUP2 MSTORE SWAP1 PUSH1 0x40 MSTORE DUP1 MLOAD SWAP1 PUSH1 0x20 ADD KECCAK256 SWAP1 POP PUSH2 0x2A7 DUP4 DUP4 DUP1 DUP1 PUSH1 0x20 MUL PUSH1 0x20 ADD PUSH1 0x40 MLOAD SWAP1 DUP2 ADD PUSH1 0x40 MSTORE DUP1 SWAP4 SWAP3 SWAP2 SWAP1 DUP2 DUP2 MSTORE PUSH1 0x20 ADD DUP4 DUP4 PUSH1 0x20 MUL DUP1 DUP3 DUP5 CALLDATACOPY PUSH1 0x0 SWAP3 ADD SWAP2 SWAP1 SWAP2 MSTORE POP PUSH32 0x0 SWAP3 POP DUP6 SWAP2 POP PUSH2 0x4AF SWAP1 POP JUMP JUMPDEST PUSH2 0x2FD JUMPI PUSH1 0x40 MLOAD PUSH3 0x461BCD PUSH1 0xE5 SHL DUP2 MSTORE PUSH1 0x20 PUSH1 0x4 DUP3 ADD MSTORE PUSH1 0x21 PUSH1 0x24 DUP3 ADD MSTORE PUSH32 0x4D65726B6C654469737472696275746F723A20496E76616C69642070726F6F66 PUSH1 0x44 DUP3 ADD MSTORE PUSH1 0x17 PUSH1 0xF9 SHL PUSH1 0x64 DUP3 ADD MSTORE PUSH1 0x84 ADD PUSH2 0x185 JUMP JUMPDEST PUSH2 0x306 DUP8 PUSH2 0x4C5 JUMP JUMPDEST PUSH1 0x40 MLOAD PUSH4 0xA9059CBB PUSH1 0xE0 SHL DUP2 MSTORE PUSH1 0x1 PUSH1 0x1 PUSH1 0xA0 SHL SUB DUP8 DUP2 AND PUSH1 0x4 DUP4 ADD MSTORE PUSH1 0x24 DUP3 ADD DUP8 SWAP1 MSTORE PUSH32 0x0 AND SWAP1 PUSH4 0xA9059CBB SWAP1 PUSH1 0x44 ADD PUSH1 0x20 PUSH1 0x40 MLOAD DUP1 DUP4 SUB DUP2 PUSH1 0x0 DUP8 DUP1 EXTCODESIZE ISZERO DUP1 ISZERO PUSH2 0x370 JUMPI PUSH1 0x0 DUP1 REVERT JUMPDEST POP GAS CALL ISZERO DUP1 ISZERO PUSH2 0x384 JUMPI RETURNDATASIZE PUSH1 0x0 DUP1 RETURNDATACOPY RETURNDATASIZE PUSH1 0x0 REVERT JUMPDEST POP POP POP POP PUSH1 0x40 MLOAD RETURNDATASIZE PUSH1 0x1F NOT PUSH1 0x1F DUP3 ADD AND DUP3 ADD DUP1 PUSH1 0x40 MSTORE POP DUP2 ADD SWAP1 PUSH2 0x3A8 SWAP2 SWAP1 PUSH2 0x6A0 JUMP JUMPDEST PUSH2 0x400 JUMPI PUSH1 0x40 MLOAD PUSH3 0x461BCD PUSH1 0xE5 SHL DUP2 MSTORE PUSH1 0x20 PUSH1 0x4 DUP3 ADD MSTORE PUSH1 0x23 PUSH1 0x24 DUP3 ADD MSTORE PUSH32 0x4D65726B6C654469737472696275746F723A205472616E73666572206661696C PUSH1 0x44 DUP3 ADD MSTORE PUSH3 0x32B217 PUSH1 0xE9 SHL PUSH1 0x64 DUP3 ADD MSTORE PUSH1 0x84 ADD PUSH2 0x185 JUMP JUMPDEST PUSH1 0x40 DUP1 MLOAD DUP9 DUP2 MSTORE PUSH1 0x1 PUSH1 0x1 PUSH1 0xA0 SHL SUB DUP9 AND PUSH1 0x20 DUP3 ADD MSTORE SWAP1 DUP2 ADD DUP7 SWAP1 MSTORE PUSH32 0x4EC90E965519D92681267467F775ADA5BD214AA92C0DC93D90A5E880CE9ED026 SWAP1 PUSH1 0x60 ADD PUSH1 0x40 MLOAD DUP1 SWAP2 SUB SWAP1 LOG1 POP POP POP POP POP POP POP JUMP JUMPDEST PUSH1 0x40 MLOAD DUP1 PUSH1 0x60 ADD PUSH1 0x40 MSTORE DUP1 PUSH1 0x35 DUP2 MSTORE PUSH1 0x20 ADD PUSH2 0x740 PUSH1 0x35 SWAP2 CODECOPY DUP2 JUMP JUMPDEST PUSH1 0x0 DUP1 PUSH2 0x47D PUSH2 0x100 DUP5 PUSH2 0x6D8 JUMP JUMPDEST SWAP1 POP PUSH1 0x0 PUSH2 0x48D PUSH2 0x100 DUP6 PUSH2 0x6EC JUMP JUMPDEST PUSH1 0x0 SWAP3 DUP4 MSTORE PUSH1 0x20 DUP4 SWAP1 MSTORE PUSH1 0x40 SWAP1 SWAP3 KECCAK256 SLOAD PUSH1 0x1 SWAP1 SWAP3 SHL SWAP2 DUP3 AND SWAP1 SWAP2 EQ SWAP4 SWAP3 POP POP POP JUMP JUMPDEST PUSH1 0x0 DUP3 PUSH2 0x4BC DUP6 DUP5 PUSH2 0x503 JUMP JUMPDEST EQ SWAP5 SWAP4 POP POP POP POP JUMP JUMPDEST PUSH1 0x0 PUSH2 0x4D3 PUSH2 0x100 DUP4 PUSH2 0x6D8 JUMP JUMPDEST SWAP1 POP PUSH1 0x0 PUSH2 0x4E3 PUSH2 0x100 DUP5 PUSH2 0x6EC JUMP JUMPDEST PUSH1 0x0 SWAP3 DUP4 MSTORE PUSH1 0x20 DUP4 SWAP1 MSTORE PUSH1 0x40 SWAP1 SWAP3 KECCAK256 DUP1 SLOAD PUSH1 0x1 SWAP1 SWAP4 SHL SWAP1 SWAP3 OR SWAP1 SWAP2 SSTORE POP POP JUMP JUMPDEST PUSH1 0x0 DUP2 DUP2 JUMPDEST DUP5 MLOAD DUP2 LT ISZERO PUSH2 0x548 JUMPI PUSH2 0x534 DUP3 DUP7 DUP4 DUP2 MLOAD DUP2 LT PUSH2 0x527 JUMPI PUSH2 0x527 PUSH2 0x700 JUMP JUMPDEST PUSH1 0x20 MUL PUSH1 0x20 ADD ADD MLOAD PUSH2 0x550 JUMP JUMPDEST SWAP2 POP DUP1 PUSH2 0x540 DUP2 PUSH2 0x716 JUMP JUMPDEST SWAP2 POP POP PUSH2 0x508 JUMP JUMPDEST POP SWAP4 SWAP3 POP POP POP JUMP JUMPDEST PUSH1 0x0 DUP2 DUP4 LT PUSH2 0x56C JUMPI PUSH1 0x0 DUP3 DUP2 MSTORE PUSH1 0x20 DUP5 SWAP1 MSTORE PUSH1 0x40 SWAP1 KECCAK256 PUSH2 0x57B JUMP JUMPDEST PUSH1 0x0 DUP4 DUP2 MSTORE PUSH1 0x20 DUP4 SWAP1 MSTORE PUSH1 0x40 SWAP1 KECCAK256 JUMPDEST SWAP4 SWAP3 POP POP POP JUMP JUMPDEST PUSH1 0x0 DUP1 PUSH1 0x0 DUP1 PUSH1 0x0 DUP1 PUSH1 0xA0 DUP8 DUP10 SUB SLT ISZERO PUSH2 0x59B JUMPI PUSH1 0x0 DUP1 REVERT JUMPDEST DUP7 CALLDATALOAD SWAP6 POP PUSH1 0x20 DUP8 ADD CALLDATALOAD PUSH1 0x1 PUSH1 0x1 PUSH1 0xA0 SHL SUB DUP2 AND DUP2 EQ PUSH2 0x5B9 JUMPI PUSH1 0x0 DUP1 REVERT JUMPDEST SWAP5 POP PUSH1 0x40 DUP8 ADD CALLDATALOAD SWAP4 POP PUSH1 0x60 DUP8 ADD CALLDATALOAD SWAP3 POP PUSH1 0x80 DUP8 ADD CALLDATALOAD PUSH8 0xFFFFFFFFFFFFFFFF DUP1 DUP3 GT ISZERO PUSH2 0x5E4 JUMPI PUSH1 0x0 DUP1 REVERT JUMPDEST DUP2 DUP10 ADD SWAP2 POP DUP10 PUSH1 0x1F DUP4 ADD SLT PUSH2 0x5F8 JUMPI PUSH1 0x0 DUP1 REVERT JUMPDEST DUP2 CALLDATALOAD DUP2 DUP2 GT ISZERO PUSH2 0x607 JUMPI PUSH1 0x0 DUP1 REVERT JUMPDEST DUP11 PUSH1 0x20 DUP3 PUSH1 0x5 SHL DUP6 ADD ADD GT ISZERO PUSH2 0x61C JUMPI PUSH1 0x0 DUP1 REVERT JUMPDEST PUSH1 0x20 DUP4 ADD SWAP5 POP DUP1 SWAP4 POP POP POP POP SWAP3 SWAP6 POP SWAP3 SWAP6 POP SWAP3 SWAP6 JUMP JUMPDEST PUSH1 0x0 PUSH1 0x20 DUP1 DUP4 MSTORE DUP4 MLOAD DUP1 DUP3 DUP6 ADD MSTORE PUSH1 0x0 JUMPDEST DUP2 DUP2 LT ISZERO PUSH2 0x65F JUMPI DUP6 DUP2 ADD DUP4 ADD MLOAD DUP6 DUP3 ADD PUSH1 0x40 ADD MSTORE DUP3 ADD PUSH2 0x643 JUMP JUMPDEST DUP2 DUP2 GT ISZERO PUSH2 0x671 JUMPI PUSH1 0x0 PUSH1 0x40 DUP4 DUP8 ADD ADD MSTORE JUMPDEST POP PUSH1 0x1F ADD PUSH1 0x1F NOT AND SWAP3 SWAP1 SWAP3 ADD PUSH1 0x40 ADD SWAP4 SWAP3 POP POP POP JUMP JUMPDEST PUSH1 0x0 PUSH1 0x20 DUP3 DUP5 SUB SLT ISZERO PUSH2 0x699 JUMPI PUSH1 0x0 DUP1 REVERT JUMPDEST POP CALLDATALOAD SWAP2 SWAP1 POP JUMP JUMPDEST PUSH1 0x0 PUSH1 0x20 DUP3 DUP5 SUB SLT ISZERO PUSH2 0x6B2 JUMPI PUSH1 0x0 DUP1 REVERT JUMPDEST DUP2 MLOAD DUP1 ISZERO ISZERO DUP2 EQ PUSH2 0x57B JUMPI PUSH1 0x0 DUP1 REVERT JUMPDEST PUSH4 0x4E487B71 PUSH1 0xE0 SHL PUSH1 0x0 MSTORE PUSH1 0x12 PUSH1 0x4 MSTORE PUSH1 0x24 PUSH1 0x0 REVERT JUMPDEST PUSH1 0x0 DUP3 PUSH2 0x6E7 JUMPI PUSH2 0x6E7 PUSH2 0x6C2 JUMP JUMPDEST POP DIV SWAP1 JUMP JUMPDEST PUSH1 0x0 DUP3 PUSH2 0x6FB JUMPI PUSH2 0x6FB PUSH2 0x6C2 JUMP JUMPDEST POP MOD SWAP1 JUMP JUMPDEST PUSH4 0x4E487B71 PUSH1 0xE0 SHL PUSH1 0x0 MSTORE PUSH1 0x32 PUSH1 0x4 MSTORE PUSH1 0x24 PUSH1 0x0 REVERT JUMPDEST PUSH1 0x0 PUSH1 0x0 NOT DUP3 EQ ISZERO PUSH2 0x738 JUMPI PUSH4 0x4E487B71 PUSH1 0xE0 SHL PUSH1 0x0 MSTORE PUSH1 0x11 PUSH1 0x4 MSTORE PUSH1 0x24 PUSH1 0x0 REVERT JUMPDEST POP PUSH1 0x1 ADD SWAP1 JUMP INVALID 0x4D PUSH6 0x726B6C652044 PUSH10 0x737472696275746F7220 PUSH4 0x6F6E7472 PUSH2 0x6374 KECCAK256 PUSH24 0x69746820696E646976696475616C2074696D657374616D70 LOG2 PUSH5 0x6970667358 0x22 SLT KECCAK256 0xA5 0x1F SWAP11 REVERT PUSH12 0xA486EDBB0FB327E8A1D4FC99 0xC4 0xE1 0xAC CREATE RETURNDATACOPY CREATE2 TIMESTAMP 0xF8 DIV 0x4A GASPRICE SUB EXTCODESIZE 0xAE 0x4F PUSH5 0x736F6C6343 STOP ADDMOD MULMOD STOP CALLER "},"methodIdentifiers":{"claim(uint256,address,uint256,uint256,bytes32[])":"3e4fcb21","description()":"7284e416","isClaimed(uint256)":"9e34070f","merkleRoot()":"2eb4a7ab","token()":"fc0c546a"}}}}}