{
  "_format": "hh-sol-artifact-1",
  "contractName": "MerkleDistributorV1",
  "sourceName": "contracts/MerkleDistributorV1.sol",
  "abi": [
    {
      "inputs": [
        {
          "internalType": "address",
          "name": "token_",
          "type": "address"
        },
        {
          "internalType": "bytes32",
          "name": "merkleRoot_",
          "type": "bytes32"
        }
      ],
      "stateMutability": "nonpayable",
      "type": "constructor"
    },
    {
      "anonymous": false,
      "inputs": [
        {
          "indexed": false,
          "internalType": "uint256",
          "name": "index",
          "type": "uint256"
        },
        {
          "indexed": false,
          "internalType": "address",
          "name": "account",
          "type": "address"
        },
        {
          "indexed": false,
          "internalType": "uint256",
          "name": "amount",
          "type": "uint256"
        }
      ],
      "name": "Claimed",
      "type": "event"
    },
    {
      "inputs": [
        {
          "internalType": "uint256",
          "name": "index",
          "type": "uint256"
        },
        {
          "internalType": "address",
          "name": "account",
          "type": "address"
        },
        {
          "internalType": "uint256",
          "name": "amount",
          "type": "uint256"
        },
        {
          "internalType": "bytes32[]",
          "name": "merkleProof",
          "type": "bytes32[]"
        }
      ],
      "name": "claim",
      "outputs": [],
      "stateMutability": "nonpayable",
      "type": "function"
    },
    {
      "inputs": [],
      "name": "description",
      "outputs": [
        {
          "internalType": "string",
          "name": "",
          "type": "string"
        }
      ],
      "stateMutability": "view",
      "type": "function"
    },
    {
      "inputs": [
        {
          "internalType": "uint256",
          "name": "index",
          "type": "uint256"
        }
      ],
      "name": "isClaimed",
      "outputs": [
        {
          "internalType": "bool",
          "name": "",
          "type": "bool"
        }
      ],
      "stateMutability": "view",
      "type": "function"
    },
    {
      "inputs": [],
      "name": "merkleRoot",
      "outputs": [
        {
          "internalType": "bytes32",
          "name": "",
          "type": "bytes32"
        }
      ],
      "stateMutability": "view",
      "type": "function"
    },
    {
      "inputs": [],
      "name": "token",
      "outputs": [
        {
          "internalType": "address",
          "name": "",
          "type": "address"
        }
      ],
      "stateMutability": "view",
      "type": "function"
    }
  ],
  "bytecode": "0x60c060405234801561001057600080fd5b5060405161083038038061083083398101604081905261002f9161004a565b60016000556001600160a01b0390911660805260a052610084565b6000806040838503121561005d57600080fd5b82516001600160a01b038116811461007457600080fd5b6020939093015192949293505050565b60805160a05161077b6100b5600039600081816076015261026601526000818160e80152610316015261077b6000f3fe608060405234801561001057600080fd5b50600436106100575760003560e01c80632e7ba6ef1461005c5780632eb4a7ab146100715780637284e416146100ab5780639e34070f146100c0578063fc0c546a146100e3575b600080fd5b61006f61006a366004610571565b610122565b005b6100987f000000000000000000000000000000000000000000000000000000000000000081565b6040519081526020015b60405180910390f35b6100b3610440565b6040516100a29190610616565b6100d36100ce36600461066b565b61045c565b60405190151581526020016100a2565b61010a7f000000000000000000000000000000000000000000000000000000000000000081565b6040516001600160a01b0390911681526020016100a2565b6002600054141561017a5760405162461bcd60e51b815260206004820152601f60248201527f5265656e7472616e637947756172643a207265656e7472616e742063616c6c0060448201526064015b60405180910390fd5b60026000556101888561045c565b156101e65760405162461bcd60e51b815260206004820152602860248201527f4d65726b6c654469737472696275746f723a2044726f7020616c72656164792060448201526731b630b4b6b2b21760c11b6064820152608401610171565b60408051602081018790526bffffffffffffffffffffffff19606087901b1691810191909152605481018490526000906074016040516020818303038152906040528051906020012090506102918383808060200260200160405190810160405280939291908181526020018383602002808284376000920191909152507f0000000000000000000000000000000000000000000000000000000000000000925085915061049d9050565b6102e75760405162461bcd60e51b815260206004820152602160248201527f4d65726b6c654469737472696275746f723a20496e76616c69642070726f6f666044820152601760f91b6064820152608401610171565b6102f0866104b3565b60405163a9059cbb60e01b81526001600160a01b038681166004830152602482018690527f0000000000000000000000000000000000000000000000000000000000000000169063a9059cbb90604401602060405180830381600087803b15801561035a57600080fd5b505af115801561036e573d6000803e3d6000fd5b505050506040513d601f19601f820116820180604052508101906103929190610684565b6103ea5760405162461bcd60e51b815260206004820152602360248201527f4d65726b6c654469737472696275746f723a205472616e73666572206661696c60448201526232b21760e91b6064820152608401610171565b604080518781526001600160a01b03871660208201529081018590527f4ec90e965519d92681267467f775ada5bd214aa92c0dc93d90a5e880ce9ed0269060600160405180910390a15050600160005550505050565b6040518060600160405280602281526020016107246022913981565b60008061046b610100846106bc565b9050600061047b610100856106d0565b60009283526001602081905260409093205492901b9182169091149392505050565b6000826104aa85846104f2565b14949350505050565b60006104c1610100836106bc565b905060006104d1610100846106d0565b600092835260016020819052604090932080549390911b9092179091555050565b600081815b84518110156105375761052382868381518110610516576105166106e4565b602002602001015161053f565b91508061052f816106fa565b9150506104f7565b509392505050565b600081831061055b57600082815260208490526040902061056a565b60008381526020839052604090205b9392505050565b60008060008060006080868803121561058957600080fd5b8535945060208601356001600160a01b03811681146105a757600080fd5b935060408601359250606086013567ffffffffffffffff808211156105cb57600080fd5b818801915088601f8301126105df57600080fd5b8135818111156105ee57600080fd5b8960208260051b850101111561060357600080fd5b9699959850939650602001949392505050565b600060208083528351808285015260005b8181101561064357858101830151858201604001528201610627565b81811115610655576000604083870101525b50601f01601f1916929092016040019392505050565b60006020828403121561067d57600080fd5b5035919050565b60006020828403121561069657600080fd5b8151801515811461056a57600080fd5b634e487b7160e01b600052601260045260246000fd5b6000826106cb576106cb6106a6565b500490565b6000826106df576106df6106a6565b500690565b634e487b7160e01b600052603260045260246000fd5b600060001982141561071c57634e487b7160e01b600052601160045260246000fd5b506001019056fe4e6f726d616c204d65726b6c65204469737472696275746f7220636f6e7472616374a2646970667358221220f43e10f626a0e9d2dffcf69ba8e794a380dfaba6b443155c8def63220d9f7e5564736f6c63430008090033",
  "linkReferences": {},
  "deployedLinkReferences": {}
}