{
  "_format": "hh-sol-artifact-1",
  "contractName": "MerkleDistributorV1",
  "sourceName": "contracts/MerkleDistributorV1.sol",
  "abi": [
    {
      "inputs": [
        {
          "internalType": "address",
          "name": "token_",
          "type": "address"
        },
        {
          "internalType": "bytes32",
          "name": "merkleRoot_",
          "type": "bytes32"
        }
      ],
      "stateMutability": "nonpayable",
      "type": "constructor"
    },
    {
      "anonymous": false,
      "inputs": [
        {
          "indexed": false,
          "internalType": "uint256",
          "name": "index",
          "type": "uint256"
        },
        {
          "indexed": false,
          "internalType": "address",
          "name": "account",
          "type": "address"
        },
        {
          "indexed": false,
          "internalType": "uint256",
          "name": "amount",
          "type": "uint256"
        }
      ],
      "name": "Claimed",
      "type": "event"
    },
    {
      "inputs": [
        {
          "internalType": "uint256",
          "name": "index",
          "type": "uint256"
        },
        {
          "internalType": "address",
          "name": "account",
          "type": "address"
        },
        {
          "internalType": "uint256",
          "name": "amount",
          "type": "uint256"
        },
        {
          "internalType": "bytes32[]",
          "name": "merkleProof",
          "type": "bytes32[]"
        }
      ],
      "name": "claim",
      "outputs": [],
      "stateMutability": "nonpayable",
      "type": "function"
    },
    {
      "inputs": [],
      "name": "description",
      "outputs": [
        {
          "internalType": "string",
          "name": "",
          "type": "string"
        }
      ],
      "stateMutability": "view",
      "type": "function"
    },
    {
      "inputs": [
        {
          "internalType": "uint256",
          "name": "index",
          "type": "uint256"
        }
      ],
      "name": "isClaimed",
      "outputs": [
        {
          "internalType": "bool",
          "name": "",
          "type": "bool"
        }
      ],
      "stateMutability": "view",
      "type": "function"
    },
    {
      "inputs": [],
      "name": "merkleRoot",
      "outputs": [
        {
          "internalType": "bytes32",
          "name": "",
          "type": "bytes32"
        }
      ],
      "stateMutability": "view",
      "type": "function"
    },
    {
      "inputs": [],
      "name": "token",
      "outputs": [
        {
          "internalType": "address",
          "name": "",
          "type": "address"
        }
      ],
      "stateMutability": "view",
      "type": "function"
    }
  ],
  "bytecode": "0x60c060405234801561001057600080fd5b506040516107cd3803806107cd83398101604081905261002f91610045565b6001600160a01b0390911660805260a05261007f565b6000806040838503121561005857600080fd5b82516001600160a01b038116811461006f57600080fd5b6020939093015192949293505050565b60805160a05161071d6100b0600039600081816076015261020e01526000818160e801526102be015261071d6000f3fe608060405234801561001057600080fd5b50600436106100575760003560e01c80632e7ba6ef1461005c5780632eb4a7ab146100715780637284e416146100ab5780639e34070f146100c0578063fc0c546a146100e3575b600080fd5b61006f61006a366004610513565b610122565b005b6100987f000000000000000000000000000000000000000000000000000000000000000081565b6040519081526020015b60405180910390f35b6100b36103e3565b6040516100a291906105b8565b6100d36100ce36600461060d565b6103ff565b60405190151581526020016100a2565b61010a7f000000000000000000000000000000000000000000000000000000000000000081565b6040516001600160a01b0390911681526020016100a2565b61012b856103ff565b1561018e5760405162461bcd60e51b815260206004820152602860248201527f4d65726b6c654469737472696275746f723a2044726f7020616c72656164792060448201526731b630b4b6b2b21760c11b60648201526084015b60405180910390fd5b60408051602081018790526bffffffffffffffffffffffff19606087901b1691810191909152605481018490526000906074016040516020818303038152906040528051906020012090506102398383808060200260200160405190810160405280939291908181526020018383602002808284376000920191909152507f000000000000000000000000000000000000000000000000000000000000000092508591506104409050565b61028f5760405162461bcd60e51b815260206004820152602160248201527f4d65726b6c654469737472696275746f723a20496e76616c69642070726f6f666044820152601760f91b6064820152608401610185565b61029886610456565b60405163a9059cbb60e01b81526001600160a01b038681166004830152602482018690527f0000000000000000000000000000000000000000000000000000000000000000169063a9059cbb90604401602060405180830381600087803b15801561030257600080fd5b505af1158015610316573d6000803e3d6000fd5b505050506040513d601f19601f8201168201806040525081019061033a9190610626565b6103925760405162461bcd60e51b815260206004820152602360248201527f4d65726b6c654469737472696275746f723a205472616e73666572206661696c60448201526232b21760e91b6064820152608401610185565b604080518781526001600160a01b03871660208201529081018590527f4ec90e965519d92681267467f775ada5bd214aa92c0dc93d90a5e880ce9ed0269060600160405180910390a1505050505050565b6040518060600160405280602281526020016106c66022913981565b60008061040e6101008461065e565b9050600061041e61010085610672565b60009283526020839052604090922054600190921b9182169091149392505050565b60008261044d8584610494565b14949350505050565b60006104646101008361065e565b9050600061047461010084610672565b6000928352602083905260409092208054600190931b9092179091555050565b600081815b84518110156104d9576104c5828683815181106104b8576104b8610686565b60200260200101516104e1565b9150806104d18161069c565b915050610499565b509392505050565b60008183106104fd57600082815260208490526040902061050c565b60008381526020839052604090205b9392505050565b60008060008060006080868803121561052b57600080fd5b8535945060208601356001600160a01b038116811461054957600080fd5b935060408601359250606086013567ffffffffffffffff8082111561056d57600080fd5b818801915088601f83011261058157600080fd5b81358181111561059057600080fd5b8960208260051b85010111156105a557600080fd5b9699959850939650602001949392505050565b600060208083528351808285015260005b818110156105e5578581018301518582016040015282016105c9565b818111156105f7576000604083870101525b50601f01601f1916929092016040019392505050565b60006020828403121561061f57600080fd5b5035919050565b60006020828403121561063857600080fd5b8151801515811461050c57600080fd5b634e487b7160e01b600052601260045260246000fd5b60008261066d5761066d610648565b500490565b60008261068157610681610648565b500690565b634e487b7160e01b600052603260045260246000fd5b60006000198214156106be57634e487b7160e01b600052601160045260246000fd5b506001019056fe4e6f726d616c204d65726b6c65204469737472696275746f7220636f6e7472616374a26469706673582212201bd9678d2f62e9c5dcc596b66d7a42206160f62a1db72b66005b900d56188f0f64736f6c63430008090033",
  "linkReferences": {},
  "deployedLinkReferences": {}
}