{
  "_format": "hh-sol-artifact-1",
  "contractName": "MerkleDistributorERC721V3",
  "sourceName": "contracts/MerkleDistributorERC721V3.sol",
  "abi": [
    {
      "inputs": [
        {
          "internalType": "string",
          "name": "name_",
          "type": "string"
        },
        {
          "internalType": "string",
          "name": "symbol_",
          "type": "string"
        },
        {
          "internalType": "bytes32",
          "name": "merkleroot_",
          "type": "bytes32"
        }
      ],
      "stateMutability": "nonpayable",
      "type": "constructor"
    },
    {
      "anonymous": false,
      "inputs": [
        {
          "indexed": true,
          "internalType": "address",
          "name": "owner",
          "type": "address"
        },
        {
          "indexed": true,
          "internalType": "address",
          "name": "approved",
          "type": "address"
        },
        {
          "indexed": true,
          "internalType": "uint256",
          "name": "tokenId",
          "type": "uint256"
        }
      ],
      "name": "Approval",
      "type": "event"
    },
    {
      "anonymous": false,
      "inputs": [
        {
          "indexed": true,
          "internalType": "address",
          "name": "owner",
          "type": "address"
        },
        {
          "indexed": true,
          "internalType": "address",
          "name": "operator",
          "type": "address"
        },
        {
          "indexed": false,
          "internalType": "bool",
          "name": "approved",
          "type": "bool"
        }
      ],
      "name": "ApprovalForAll",
      "type": "event"
    },
    {
      "anonymous": false,
      "inputs": [
        {
          "indexed": true,
          "internalType": "address",
          "name": "from",
          "type": "address"
        },
        {
          "indexed": true,
          "internalType": "address",
          "name": "to",
          "type": "address"
        },
        {
          "indexed": true,
          "internalType": "uint256",
          "name": "tokenId",
          "type": "uint256"
        }
      ],
      "name": "Transfer",
      "type": "event"
    },
    {
      "inputs": [
        {
          "internalType": "address",
          "name": "to",
          "type": "address"
        },
        {
          "internalType": "uint256",
          "name": "tokenId",
          "type": "uint256"
        }
      ],
      "name": "approve",
      "outputs": [],
      "stateMutability": "nonpayable",
      "type": "function"
    },
    {
      "inputs": [
        {
          "internalType": "address",
          "name": "owner",
          "type": "address"
        }
      ],
      "name": "balanceOf",
      "outputs": [
        {
          "internalType": "uint256",
          "name": "",
          "type": "uint256"
        }
      ],
      "stateMutability": "view",
      "type": "function"
    },
    {
      "inputs": [
        {
          "internalType": "uint256",
          "name": "tokenId",
          "type": "uint256"
        }
      ],
      "name": "getApproved",
      "outputs": [
        {
          "internalType": "address",
          "name": "",
          "type": "address"
        }
      ],
      "stateMutability": "view",
      "type": "function"
    },
    {
      "inputs": [
        {
          "internalType": "address",
          "name": "owner",
          "type": "address"
        },
        {
          "internalType": "address",
          "name": "operator",
          "type": "address"
        }
      ],
      "name": "isApprovedForAll",
      "outputs": [
        {
          "internalType": "bool",
          "name": "",
          "type": "bool"
        }
      ],
      "stateMutability": "view",
      "type": "function"
    },
    {
      "inputs": [],
      "name": "name",
      "outputs": [
        {
          "internalType": "string",
          "name": "",
          "type": "string"
        }
      ],
      "stateMutability": "view",
      "type": "function"
    },
    {
      "inputs": [
        {
          "internalType": "uint256",
          "name": "tokenId",
          "type": "uint256"
        }
      ],
      "name": "ownerOf",
      "outputs": [
        {
          "internalType": "address",
          "name": "",
          "type": "address"
        }
      ],
      "stateMutability": "view",
      "type": "function"
    },
    {
      "inputs": [
        {
          "internalType": "address",
          "name": "account",
          "type": "address"
        },
        {
          "internalType": "uint256",
          "name": "tokenId",
          "type": "uint256"
        },
        {
          "internalType": "uint256",
          "name": "timestamp",
          "type": "uint256"
        },
        {
          "internalType": "bytes32[]",
          "name": "proof",
          "type": "bytes32[]"
        }
      ],
      "name": "redeem",
      "outputs": [],
      "stateMutability": "nonpayable",
      "type": "function"
    },
    {
      "inputs": [],
      "name": "root",
      "outputs": [
        {
          "internalType": "bytes32",
          "name": "",
          "type": "bytes32"
        }
      ],
      "stateMutability": "view",
      "type": "function"
    },
    {
      "inputs": [
        {
          "internalType": "address",
          "name": "from",
          "type": "address"
        },
        {
          "internalType": "address",
          "name": "to",
          "type": "address"
        },
        {
          "internalType": "uint256",
          "name": "tokenId",
          "type": "uint256"
        }
      ],
      "name": "safeTransferFrom",
      "outputs": [],
      "stateMutability": "nonpayable",
      "type": "function"
    },
    {
      "inputs": [
        {
          "internalType": "address",
          "name": "from",
          "type": "address"
        },
        {
          "internalType": "address",
          "name": "to",
          "type": "address"
        },
        {
          "internalType": "uint256",
          "name": "tokenId",
          "type": "uint256"
        },
        {
          "internalType": "bytes",
          "name": "data",
          "type": "bytes"
        }
      ],
      "name": "safeTransferFrom",
      "outputs": [],
      "stateMutability": "nonpayable",
      "type": "function"
    },
    {
      "inputs": [
        {
          "internalType": "address",
          "name": "operator",
          "type": "address"
        },
        {
          "internalType": "bool",
          "name": "approved",
          "type": "bool"
        }
      ],
      "name": "setApprovalForAll",
      "outputs": [],
      "stateMutability": "nonpayable",
      "type": "function"
    },
    {
      "inputs": [
        {
          "internalType": "bytes4",
          "name": "interfaceId",
          "type": "bytes4"
        }
      ],
      "name": "supportsInterface",
      "outputs": [
        {
          "internalType": "bool",
          "name": "",
          "type": "bool"
        }
      ],
      "stateMutability": "view",
      "type": "function"
    },
    {
      "inputs": [],
      "name": "symbol",
      "outputs": [
        {
          "internalType": "string",
          "name": "",
          "type": "string"
        }
      ],
      "stateMutability": "view",
      "type": "function"
    },
    {
      "inputs": [
        {
          "internalType": "uint256",
          "name": "tokenId",
          "type": "uint256"
        }
      ],
      "name": "tokenURI",
      "outputs": [
        {
          "internalType": "string",
          "name": "",
          "type": "string"
        }
      ],
      "stateMutability": "view",
      "type": "function"
    },
    {
      "inputs": [
        {
          "internalType": "address",
          "name": "from",
          "type": "address"
        },
        {
          "internalType": "address",
          "name": "to",
          "type": "address"
        },
        {
          "internalType": "uint256",
          "name": "tokenId",
          "type": "uint256"
        }
      ],
      "name": "transferFrom",
      "outputs": [],
      "stateMutability": "nonpayable",
      "type": "function"
    }
  ],
  "bytecode": "0x60a06040523480156200001157600080fd5b5060405162001899380380620018998339810160408190526200003491620001e5565b8251839083906200004d90600090602085019062000072565b5080516200006390600190602084019062000072565b50505060805250620002959050565b828054620000809062000258565b90600052602060002090601f016020900481019282620000a45760008555620000ef565b82601f10620000bf57805160ff1916838001178555620000ef565b82800160010185558215620000ef579182015b82811115620000ef578251825591602001919060010190620000d2565b50620000fd92915062000101565b5090565b5b80821115620000fd576000815560010162000102565b634e487b7160e01b600052604160045260246000fd5b600082601f8301126200014057600080fd5b81516001600160401b03808211156200015d576200015d62000118565b604051601f8301601f19908116603f0116810190828211818310171562000188576200018862000118565b81604052838152602092508683858801011115620001a557600080fd5b600091505b83821015620001c95785820183015181830184015290820190620001aa565b83821115620001db5760008385830101525b9695505050505050565b600080600060608486031215620001fb57600080fd5b83516001600160401b03808211156200021357600080fd5b62000221878388016200012e565b945060208601519150808211156200023857600080fd5b5062000247868287016200012e565b925050604084015190509250925092565b600181811c908216806200026d57607f821691505b602082108114156200028f57634e487b7160e01b600052602260045260246000fd5b50919050565b6080516115e1620002b86000396000818161026601526108d901526115e16000f3fe608060405234801561001057600080fd5b50600436106100f55760003560e01c80636352211e11610097578063b88d4fde11610066578063b88d4fde146101ff578063c87b56dd14610212578063e985e9c514610225578063ebf0c7171461026157600080fd5b80636352211e146101b057806370a08231146101c357806395d89b41146101e4578063a22cb465146101ec57600080fd5b8063095ea7b3116100d3578063095ea7b3146101625780630fc376ff1461017757806323b872dd1461018a57806342842e0e1461019d57600080fd5b806301ffc9a7146100fa57806306fdde0314610122578063081812fc14610137575b600080fd5b61010d61010836600461105d565b610288565b60405190151581526020015b60405180910390f35b61012a6102da565b60405161011991906110d2565b61014a6101453660046110e5565b61036c565b6040516001600160a01b039091168152602001610119565b61017561017036600461111a565b610393565b005b610175610185366004611144565b6104ae565b6101756101983660046111db565b610605565b6101756101ab3660046111db565b610636565b61014a6101be3660046110e5565b610651565b6101d66101d1366004611217565b6106b1565b604051908152602001610119565b61012a610737565b6101756101fa366004611232565b610746565b61017561020d366004611284565b610755565b61012a6102203660046110e5565b61078d565b61010d610233366004611360565b6001600160a01b03918216600090815260056020908152604080832093909416825291909152205460ff1690565b6101d67f000000000000000000000000000000000000000000000000000000000000000081565b60006001600160e01b031982166380ac58cd60e01b14806102b957506001600160e01b03198216635b5e139f60e01b145b806102d457506301ffc9a760e01b6001600160e01b03198316145b92915050565b6060600080546102e990611393565b80601f016020809104026020016040519081016040528092919081815260200182805461031590611393565b80156103625780601f1061033757610100808354040283529160200191610362565b820191906000526020600020905b81548152906001019060200180831161034557829003601f168201915b5050505050905090565b600061037782610801565b506000908152600460205260409020546001600160a01b031690565b600061039e82610651565b9050806001600160a01b0316836001600160a01b031614156104115760405162461bcd60e51b815260206004820152602160248201527f4552433732313a20617070726f76616c20746f2063757272656e74206f776e656044820152603960f91b60648201526084015b60405180910390fd5b336001600160a01b038216148061042d575061042d8133610233565b61049f5760405162461bcd60e51b815260206004820152603e60248201527f4552433732313a20617070726f76652063616c6c6572206973206e6f7420746f60448201527f6b656e206f776e6572206e6f7220617070726f76656420666f7220616c6c00006064820152608401610408565b6104a98383610863565b505050565b824210156105165760405162461bcd60e51b815260206004820152602f60248201527f4d65726b6c6520446973747269627574696f6e3a2054696d656c6f636b20686160448201526e3b32903737ba1032bc3834b932b21760891b6064820152608401610408565b6040805160208082018790526bffffffffffffffffffffffff19606089901b168284015260548083018790528351808403909101815260749092019092528051910120610596908383808060200260200160405190810160405280939291908181526020018383602002808284376000920191909152506108d192505050565b6105f45760405162461bcd60e51b815260206004820152602960248201527f4d65726b6c6520446973747269627574696f6e3a20496e76616c6964206d657260448201526835b63290383937b7b360b91b6064820152608401610408565b6105fe85856108fe565b5050505050565b61060f3382610918565b61062b5760405162461bcd60e51b8152600401610408906113ce565b6104a9838383610997565b6104a983838360405180602001604052806000815250610755565b6000818152600260205260408120546001600160a01b0316806102d45760405162461bcd60e51b8152602060048201526018602482015277115490cdcc8c4e881a5b9d985b1a59081d1bdad95b88125160421b6044820152606401610408565b60006001600160a01b03821661071b5760405162461bcd60e51b815260206004820152602960248201527f4552433732313a2061646472657373207a65726f206973206e6f7420612076616044820152683634b21037bbb732b960b91b6064820152608401610408565b506001600160a01b031660009081526003602052604090205490565b6060600180546102e990611393565b610751338383610b33565b5050565b61075f3383610918565b61077b5760405162461bcd60e51b8152600401610408906113ce565b61078784848484610c02565b50505050565b606061079882610801565b60006107af60408051602081019091526000815290565b905060008151116107cf57604051806020016040528060008152506107fa565b806107d984610c35565b6040516020016107ea92919061141c565b6040516020818303038152906040525b9392505050565b6000818152600260205260409020546001600160a01b03166108605760405162461bcd60e51b8152602060048201526018602482015277115490cdcc8c4e881a5b9d985b1a59081d1bdad95b88125160421b6044820152606401610408565b50565b600081815260046020526040902080546001600160a01b0319166001600160a01b038416908117909155819061089882610651565b6001600160a01b03167f8c5be1e5ebec7d5bd14f71427d1e84f3dd0314c0f7b2291e5b200ac8c7c3b92560405160405180910390a45050565b60006107fa827f000000000000000000000000000000000000000000000000000000000000000085610d33565b610751828260405180602001604052806000815250610d49565b60008061092483610651565b9050806001600160a01b0316846001600160a01b0316148061096b57506001600160a01b0380821660009081526005602090815260408083209388168352929052205460ff165b8061098f5750836001600160a01b03166109848461036c565b6001600160a01b0316145b949350505050565b826001600160a01b03166109aa82610651565b6001600160a01b031614610a0e5760405162461bcd60e51b815260206004820152602560248201527f4552433732313a207472616e736665722066726f6d20696e636f72726563742060448201526437bbb732b960d91b6064820152608401610408565b6001600160a01b038216610a705760405162461bcd60e51b8152602060048201526024808201527f4552433732313a207472616e7366657220746f20746865207a65726f206164646044820152637265737360e01b6064820152608401610408565b610a7b600082610863565b6001600160a01b0383166000908152600360205260408120805460019290610aa4908490611461565b90915550506001600160a01b0382166000908152600360205260408120805460019290610ad2908490611478565b909155505060008181526002602052604080822080546001600160a01b0319166001600160a01b0386811691821790925591518493918716917fddf252ad1be2c89b69c2b068fc378daa952ba7f163c4a11628f55a4df523b3ef91a4505050565b816001600160a01b0316836001600160a01b03161415610b955760405162461bcd60e51b815260206004820152601960248201527f4552433732313a20617070726f766520746f2063616c6c6572000000000000006044820152606401610408565b6001600160a01b03838116600081815260056020908152604080832094871680845294825291829020805460ff191686151590811790915591519182527f17307eab39ab6107e8899845ad3d59bd9653f200f220920489ca2b5937696c31910160405180910390a3505050565b610c0d848484610997565b610c1984848484610d7c565b6107875760405162461bcd60e51b815260040161040890611490565b606081610c595750506040805180820190915260018152600360fc1b602082015290565b8160005b8115610c835780610c6d816114e2565b9150610c7c9050600a83611513565b9150610c5d565b60008167ffffffffffffffff811115610c9e57610c9e61126e565b6040519080825280601f01601f191660200182016040528015610cc8576020820181803683370190505b5090505b841561098f57610cdd600183611461565b9150610cea600a86611527565b610cf5906030611478565b60f81b818381518110610d0a57610d0a61153b565b60200101906001600160f81b031916908160001a905350610d2c600a86611513565b9450610ccc565b600082610d408584610e89565b14949350505050565b610d538383610ed6565b610d606000848484610d7c565b6104a95760405162461bcd60e51b815260040161040890611490565b60006001600160a01b0384163b15610e7e57604051630a85bd0160e11b81526001600160a01b0385169063150b7a0290610dc0903390899088908890600401611551565b602060405180830381600087803b158015610dda57600080fd5b505af1925050508015610e0a575060408051601f3d908101601f19168201909252610e079181019061158e565b60015b610e64573d808015610e38576040519150601f19603f3d011682016040523d82523d6000602084013e610e3d565b606091505b508051610e5c5760405162461bcd60e51b815260040161040890611490565b805181602001fd5b6001600160e01b031916630a85bd0160e11b14905061098f565b506001949350505050565b600081815b8451811015610ece57610eba82868381518110610ead57610ead61153b565b6020026020010151611018565b915080610ec6816114e2565b915050610e8e565b509392505050565b6001600160a01b038216610f2c5760405162461bcd60e51b815260206004820181905260248201527f4552433732313a206d696e7420746f20746865207a65726f20616464726573736044820152606401610408565b6000818152600260205260409020546001600160a01b031615610f915760405162461bcd60e51b815260206004820152601c60248201527f4552433732313a20746f6b656e20616c7265616479206d696e746564000000006044820152606401610408565b6001600160a01b0382166000908152600360205260408120805460019290610fba908490611478565b909155505060008181526002602052604080822080546001600160a01b0319166001600160a01b03861690811790915590518392907fddf252ad1be2c89b69c2b068fc378daa952ba7f163c4a11628f55a4df523b3ef908290a45050565b60008183106110345760008281526020849052604090206107fa565b60008381526020839052604090206107fa565b6001600160e01b03198116811461086057600080fd5b60006020828403121561106f57600080fd5b81356107fa81611047565b60005b8381101561109557818101518382015260200161107d565b838111156107875750506000910152565b600081518084526110be81602086016020860161107a565b601f01601f19169290920160200192915050565b6020815260006107fa60208301846110a6565b6000602082840312156110f757600080fd5b5035919050565b80356001600160a01b038116811461111557600080fd5b919050565b6000806040838503121561112d57600080fd5b611136836110fe565b946020939093013593505050565b60008060008060006080868803121561115c57600080fd5b611165866110fe565b94506020860135935060408601359250606086013567ffffffffffffffff8082111561119057600080fd5b818801915088601f8301126111a457600080fd5b8135818111156111b357600080fd5b8960208260051b85010111156111c857600080fd5b9699959850939650602001949392505050565b6000806000606084860312156111f057600080fd5b6111f9846110fe565b9250611207602085016110fe565b9150604084013590509250925092565b60006020828403121561122957600080fd5b6107fa826110fe565b6000806040838503121561124557600080fd5b61124e836110fe565b91506020830135801515811461126357600080fd5b809150509250929050565b634e487b7160e01b600052604160045260246000fd5b6000806000806080858703121561129a57600080fd5b6112a3856110fe565b93506112b1602086016110fe565b925060408501359150606085013567ffffffffffffffff808211156112d557600080fd5b818701915087601f8301126112e957600080fd5b8135818111156112fb576112fb61126e565b604051601f8201601f19908116603f011681019083821181831017156113235761132361126e565b816040528281528a602084870101111561133c57600080fd5b82602086016020830137600060208483010152809550505050505092959194509250565b6000806040838503121561137357600080fd5b61137c836110fe565b915061138a602084016110fe565b90509250929050565b600181811c908216806113a757607f821691505b602082108114156113c857634e487b7160e01b600052602260045260246000fd5b50919050565b6020808252602e908201527f4552433732313a2063616c6c6572206973206e6f7420746f6b656e206f776e6560408201526d1c881b9bdc88185c1c1c9bdd995960921b606082015260800190565b6000835161142e81846020880161107a565b83519083019061144281836020880161107a565b01949350505050565b634e487b7160e01b600052601160045260246000fd5b6000828210156114735761147361144b565b500390565b6000821982111561148b5761148b61144b565b500190565b60208082526032908201527f4552433732313a207472616e7366657220746f206e6f6e20455243373231526560408201527131b2b4bb32b91034b6b83632b6b2b73a32b960711b606082015260800190565b60006000198214156114f6576114f661144b565b5060010190565b634e487b7160e01b600052601260045260246000fd5b600082611522576115226114fd565b500490565b600082611536576115366114fd565b500690565b634e487b7160e01b600052603260045260246000fd5b6001600160a01b0385811682528416602082015260408101839052608060608201819052600090611584908301846110a6565b9695505050505050565b6000602082840312156115a057600080fd5b81516107fa8161104756fea26469706673582212209865e853efb1c873e31b5f125efc222beebfb6c5e2ac03c2d228effd6382285a64736f6c63430008090033",
  "linkReferences": {},
  "deployedLinkReferences": {}
}