{
  "_format": "hh-sol-artifact-1",
  "contractName": "MerkleDistributorV3",
  "sourceName": "contracts/MerkleDistributorV3.sol",
  "abi": [
    {
      "inputs": [
        {
          "internalType": "address",
          "name": "token_",
          "type": "address"
        },
        {
          "internalType": "bytes32",
          "name": "merkleRoot_",
          "type": "bytes32"
        },
        {
          "internalType": "bool",
          "name": "hasTimelock_",
          "type": "bool"
        },
        {
          "internalType": "uint256",
          "name": "startingTime_",
          "type": "uint256"
        },
        {
          "internalType": "uint256",
          "name": "endingTime_",
          "type": "uint256"
        }
      ],
      "stateMutability": "nonpayable",
      "type": "constructor"
    },
    {
      "anonymous": false,
      "inputs": [
        {
          "indexed": false,
          "internalType": "uint256",
          "name": "index",
          "type": "uint256"
        },
        {
          "indexed": false,
          "internalType": "address",
          "name": "account",
          "type": "address"
        },
        {
          "indexed": false,
          "internalType": "uint256",
          "name": "amount",
          "type": "uint256"
        }
      ],
      "name": "Claimed",
      "type": "event"
    },
    {
      "inputs": [
        {
          "internalType": "uint256",
          "name": "index",
          "type": "uint256"
        },
        {
          "internalType": "address",
          "name": "account",
          "type": "address"
        },
        {
          "internalType": "uint256",
          "name": "amount",
          "type": "uint256"
        },
        {
          "internalType": "uint256",
          "name": "timestamp",
          "type": "uint256"
        },
        {
          "internalType": "bytes32[]",
          "name": "merkleProof",
          "type": "bytes32[]"
        }
      ],
      "name": "claim",
      "outputs": [],
      "stateMutability": "nonpayable",
      "type": "function"
    },
    {
      "inputs": [],
      "name": "description",
      "outputs": [
        {
          "internalType": "string",
          "name": "",
          "type": "string"
        }
      ],
      "stateMutability": "view",
      "type": "function"
    },
    {
      "inputs": [],
      "name": "endingTime",
      "outputs": [
        {
          "internalType": "uint256",
          "name": "",
          "type": "uint256"
        }
      ],
      "stateMutability": "view",
      "type": "function"
    },
    {
      "inputs": [],
      "name": "hasTimelock",
      "outputs": [
        {
          "internalType": "bool",
          "name": "",
          "type": "bool"
        }
      ],
      "stateMutability": "view",
      "type": "function"
    },
    {
      "inputs": [
        {
          "internalType": "uint256",
          "name": "index",
          "type": "uint256"
        }
      ],
      "name": "isClaimed",
      "outputs": [
        {
          "internalType": "bool",
          "name": "",
          "type": "bool"
        }
      ],
      "stateMutability": "view",
      "type": "function"
    },
    {
      "inputs": [],
      "name": "merkleRoot",
      "outputs": [
        {
          "internalType": "bytes32",
          "name": "",
          "type": "bytes32"
        }
      ],
      "stateMutability": "view",
      "type": "function"
    },
    {
      "inputs": [],
      "name": "startingTime",
      "outputs": [
        {
          "internalType": "uint256",
          "name": "",
          "type": "uint256"
        }
      ],
      "stateMutability": "view",
      "type": "function"
    },
    {
      "inputs": [],
      "name": "token",
      "outputs": [
        {
          "internalType": "address",
          "name": "",
          "type": "address"
        }
      ],
      "stateMutability": "view",
      "type": "function"
    }
  ],
  "bytecode": "0x61012060405234801561001157600080fd5b50604051610bb8380380610bb88339810160408190526100309161005a565b60016000556001600160a01b0390941660805260a092909252151560c05260e052610100526100bf565b600080600080600060a0868803121561007257600080fd5b85516001600160a01b038116811461008957600080fd5b60208701516040880151919650945080151581146100a657600080fd5b6060870151608090970151959894975095949392505050565b60805160a05160c05160e05161010051610a86610132600039600081816101080152818161033d01526103e701526000818160cc015281816102b401526103bc015260008181610167015261028e0152600081816092015261055201526000818161018e01526106020152610a866000f3fe608060405234801561001057600080fd5b50600436106100885760003560e01c80637284e4161161005b5780637284e4161461012a5780639e34070f1461013f578063cb5ea4dc14610162578063fc0c546a1461018957600080fd5b80632eb4a7ab1461008d57806339518b5e146100c75780633e4fcb21146100ee5780636c47a6c314610103575b600080fd5b6100b47f000000000000000000000000000000000000000000000000000000000000000081565b6040519081526020015b60405180910390f35b6100b47f000000000000000000000000000000000000000000000000000000000000000081565b6101016100fc36600461085e565b6101c8565b005b6100b47f000000000000000000000000000000000000000000000000000000000000000081565b61013261072d565b6040516100be919061090e565b61015261014d366004610963565b610749565b60405190151581526020016100be565b6101527f000000000000000000000000000000000000000000000000000000000000000081565b6101b07f000000000000000000000000000000000000000000000000000000000000000081565b6040516001600160a01b0390911681526020016100be565b600260005414156102205760405162461bcd60e51b815260206004820152601f60248201527f5265656e7472616e637947756172643a207265656e7472616e742063616c6c0060448201526064015b60405180910390fd5b600260005561022e86610749565b1561028c5760405162461bcd60e51b815260206004820152602860248201527f4d65726b6c654469737472696275746f723a2044726f7020616c72656164792060448201526731b630b4b6b2b21760c11b6064820152608401610217565b7f000000000000000000000000000000000000000000000000000000000000000015610464577f000000000000000000000000000000000000000000000000000000000000000042101561033b5760405162461bcd60e51b815260206004820152603060248201527f4d65726b6c654469737472696275746f723a2041697264726f7020686176652060448201526f3737ba1039ba30b93a32b2103cb2ba1760811b6064820152608401610217565b7f00000000000000000000000000000000000000000000000000000000000000004211156103ba5760405162461bcd60e51b815260206004820152602660248201527f4d65726b6c654469737472696275746f723a2041697264726f7020686176652060448201526532b73232b21760d11b6064820152608401610217565b7f0000000000000000000000000000000000000000000000000000000000000000831015801561040a57507f00000000000000000000000000000000000000000000000000000000000000008311155b6104645760405162461bcd60e51b815260206004820152602560248201527f4d65726b6c654469737472696275746f723a20496e76616c69642074696d65736044820152643a30b6b81760d91b6064820152608401610217565b428311156104cb5760405162461bcd60e51b815260206004820152602e60248201527f4d65726b6c654469737472696275746f723a2054696d657374616d702068617660448201526d32903737ba1032bc3834b932b21760911b6064820152608401610217565b60408051602081018890526bffffffffffffffffffffffff19606088901b1691810191909152605481018590526074810184905260009060940160405160208183030381529060405280519060200120905061057d8383808060200260200160405190810160405280939291908181526020018383602002808284376000920191909152507f0000000000000000000000000000000000000000000000000000000000000000925085915061078a9050565b6105d35760405162461bcd60e51b815260206004820152602160248201527f4d65726b6c654469737472696275746f723a20496e76616c69642070726f6f666044820152601760f91b6064820152608401610217565b6105dc876107a0565b60405163a9059cbb60e01b81526001600160a01b038781166004830152602482018790527f0000000000000000000000000000000000000000000000000000000000000000169063a9059cbb90604401602060405180830381600087803b15801561064657600080fd5b505af115801561065a573d6000803e3d6000fd5b505050506040513d601f19601f8201168201806040525081019061067e919061097c565b6106d65760405162461bcd60e51b815260206004820152602360248201527f4d65726b6c654469737472696275746f723a205472616e73666572206661696c60448201526232b21760e91b6064820152608401610217565b604080518881526001600160a01b03881660208201529081018690527f4ec90e965519d92681267467f775ada5bd214aa92c0dc93d90a5e880ce9ed0269060600160405180910390a1505060016000555050505050565b604051806060016040528060358152602001610a1c6035913981565b600080610758610100846109b4565b90506000610768610100856109c8565b60009283526001602081905260409093205492901b9182169091149392505050565b60008261079785846107df565b14949350505050565b60006107ae610100836109b4565b905060006107be610100846109c8565b600092835260016020819052604090932080549390911b9092179091555050565b600081815b84518110156108245761081082868381518110610803576108036109dc565b602002602001015161082c565b91508061081c816109f2565b9150506107e4565b509392505050565b6000818310610848576000828152602084905260409020610857565b60008381526020839052604090205b9392505050565b60008060008060008060a0878903121561087757600080fd5b8635955060208701356001600160a01b038116811461089557600080fd5b94506040870135935060608701359250608087013567ffffffffffffffff808211156108c057600080fd5b818901915089601f8301126108d457600080fd5b8135818111156108e357600080fd5b8a60208260051b85010111156108f857600080fd5b6020830194508093505050509295509295509295565b600060208083528351808285015260005b8181101561093b5785810183015185820160400152820161091f565b8181111561094d576000604083870101525b50601f01601f1916929092016040019392505050565b60006020828403121561097557600080fd5b5035919050565b60006020828403121561098e57600080fd5b8151801515811461085757600080fd5b634e487b7160e01b600052601260045260246000fd5b6000826109c3576109c361099e565b500490565b6000826109d7576109d761099e565b500690565b634e487b7160e01b600052603260045260246000fd5b6000600019821415610a1457634e487b7160e01b600052601160045260246000fd5b506001019056fe4d65726b6c65204469737472696275746f7220636f6e7472616374207769746820696e646976696475616c2074696d657374616d70a264697066735822122009c6352ed5aff219e452ecfb0af273f8d1b39c660e3858b95e89f1aa193a7b2e64736f6c63430008090033",
  "linkReferences": {},
  "deployedLinkReferences": {}
}