{
  "_format": "hh-sol-artifact-1",
  "contractName": "MerkleDistributorV3",
  "sourceName": "contracts/MerkleDistributorV3.sol",
  "abi": [
    {
      "inputs": [
        {
          "internalType": "address",
          "name": "token_",
          "type": "address"
        },
        {
          "internalType": "bytes32",
          "name": "merkleRoot_",
          "type": "bytes32"
        }
      ],
      "stateMutability": "nonpayable",
      "type": "constructor"
    },
    {
      "anonymous": false,
      "inputs": [
        {
          "indexed": false,
          "internalType": "uint256",
          "name": "index",
          "type": "uint256"
        },
        {
          "indexed": false,
          "internalType": "address",
          "name": "account",
          "type": "address"
        },
        {
          "indexed": false,
          "internalType": "uint256",
          "name": "amount",
          "type": "uint256"
        }
      ],
      "name": "Claimed",
      "type": "event"
    },
    {
      "inputs": [
        {
          "internalType": "uint256",
          "name": "index",
          "type": "uint256"
        },
        {
          "internalType": "address",
          "name": "account",
          "type": "address"
        },
        {
          "internalType": "uint256",
          "name": "amount",
          "type": "uint256"
        },
        {
          "internalType": "uint256",
          "name": "timestamp",
          "type": "uint256"
        },
        {
          "internalType": "bytes32[]",
          "name": "merkleProof",
          "type": "bytes32[]"
        }
      ],
      "name": "claim",
      "outputs": [],
      "stateMutability": "nonpayable",
      "type": "function"
    },
    {
      "inputs": [],
      "name": "description",
      "outputs": [
        {
          "internalType": "string",
          "name": "",
          "type": "string"
        }
      ],
      "stateMutability": "view",
      "type": "function"
    },
    {
      "inputs": [
        {
          "internalType": "uint256",
          "name": "index",
          "type": "uint256"
        }
      ],
      "name": "isClaimed",
      "outputs": [
        {
          "internalType": "bool",
          "name": "",
          "type": "bool"
        }
      ],
      "stateMutability": "view",
      "type": "function"
    },
    {
      "inputs": [],
      "name": "merkleRoot",
      "outputs": [
        {
          "internalType": "bytes32",
          "name": "",
          "type": "bytes32"
        }
      ],
      "stateMutability": "view",
      "type": "function"
    },
    {
      "inputs": [],
      "name": "token",
      "outputs": [
        {
          "internalType": "address",
          "name": "",
          "type": "address"
        }
      ],
      "stateMutability": "view",
      "type": "function"
    }
  ],
  "bytecode": "0x60c060405234801561001057600080fd5b5060405161085a38038061085a83398101604081905261002f91610045565b6001600160a01b0390911660805260a05261007f565b6000806040838503121561005857600080fd5b82516001600160a01b038116811461006f57600080fd5b6020939093015192949293505050565b60805160a0516107aa6100b0600039600081816061015261027c01526000818160e8015261032c01526107aa6000f3fe608060405234801561001057600080fd5b50600436106100575760003560e01c80632eb4a7ab1461005c5780633e4fcb21146100965780637284e416146100ab5780639e34070f146100c0578063fc0c546a146100e3575b600080fd5b6100837f000000000000000000000000000000000000000000000000000000000000000081565b6040519081526020015b60405180910390f35b6100a96100a4366004610582565b610122565b005b6100b3610452565b60405161008d9190610632565b6100d36100ce366004610687565b61046e565b604051901515815260200161008d565b61010a7f000000000000000000000000000000000000000000000000000000000000000081565b6040516001600160a01b03909116815260200161008d565b61012b8661046e565b1561018e5760405162461bcd60e51b815260206004820152602860248201527f4d65726b6c654469737472696275746f723a2044726f7020616c72656164792060448201526731b630b4b6b2b21760c11b60648201526084015b60405180910390fd5b428311156101f55760405162461bcd60e51b815260206004820152602e60248201527f4d65726b6c654469737472696275746f723a2054696d657374616d702068617660448201526d32903737ba1032bc3834b932b21760911b6064820152608401610185565b60408051602081018890526bffffffffffffffffffffffff19606088901b169181019190915260548101859052607481018490526000906094016040516020818303038152906040528051906020012090506102a78383808060200260200160405190810160405280939291908181526020018383602002808284376000920191909152507f000000000000000000000000000000000000000000000000000000000000000092508591506104af9050565b6102fd5760405162461bcd60e51b815260206004820152602160248201527f4d65726b6c654469737472696275746f723a20496e76616c69642070726f6f666044820152601760f91b6064820152608401610185565b610306876104c5565b60405163a9059cbb60e01b81526001600160a01b038781166004830152602482018790527f0000000000000000000000000000000000000000000000000000000000000000169063a9059cbb90604401602060405180830381600087803b15801561037057600080fd5b505af1158015610384573d6000803e3d6000fd5b505050506040513d601f19601f820116820180604052508101906103a891906106a0565b6104005760405162461bcd60e51b815260206004820152602360248201527f4d65726b6c654469737472696275746f723a205472616e73666572206661696c60448201526232b21760e91b6064820152608401610185565b604080518881526001600160a01b03881660208201529081018690527f4ec90e965519d92681267467f775ada5bd214aa92c0dc93d90a5e880ce9ed0269060600160405180910390a150505050505050565b6040518060600160405280603581526020016107406035913981565b60008061047d610100846106d8565b9050600061048d610100856106ec565b60009283526020839052604090922054600190921b9182169091149392505050565b6000826104bc8584610503565b14949350505050565b60006104d3610100836106d8565b905060006104e3610100846106ec565b6000928352602083905260409092208054600190931b9092179091555050565b600081815b8451811015610548576105348286838151811061052757610527610700565b6020026020010151610550565b91508061054081610716565b915050610508565b509392505050565b600081831061056c57600082815260208490526040902061057b565b60008381526020839052604090205b9392505050565b60008060008060008060a0878903121561059b57600080fd5b8635955060208701356001600160a01b03811681146105b957600080fd5b94506040870135935060608701359250608087013567ffffffffffffffff808211156105e457600080fd5b818901915089601f8301126105f857600080fd5b81358181111561060757600080fd5b8a60208260051b850101111561061c57600080fd5b6020830194508093505050509295509295509295565b600060208083528351808285015260005b8181101561065f57858101830151858201604001528201610643565b81811115610671576000604083870101525b50601f01601f1916929092016040019392505050565b60006020828403121561069957600080fd5b5035919050565b6000602082840312156106b257600080fd5b8151801515811461057b57600080fd5b634e487b7160e01b600052601260045260246000fd5b6000826106e7576106e76106c2565b500490565b6000826106fb576106fb6106c2565b500690565b634e487b7160e01b600052603260045260246000fd5b600060001982141561073857634e487b7160e01b600052601160045260246000fd5b506001019056fe4d65726b6c65204469737472696275746f7220636f6e7472616374207769746820696e646976696475616c2074696d657374616d70a2646970667358221220a51f9afd6ba486edbb0fb327e8a1d4fc99c4e1acf03ef542f8044a3a033bae4f64736f6c63430008090033",
  "linkReferences": {},
  "deployedLinkReferences": {}
}