{
  "_format": "hh-sol-artifact-1",
  "contractName": "MerkleDistributorV2",
  "sourceName": "contracts/MerkleDistributorV2.sol",
  "abi": [
    {
      "inputs": [
        {
          "internalType": "address",
          "name": "token_",
          "type": "address"
        },
        {
          "internalType": "bytes32",
          "name": "merkleRoot_",
          "type": "bytes32"
        },
        {
          "internalType": "uint256",
          "name": "timestamp_",
          "type": "uint256"
        }
      ],
      "stateMutability": "nonpayable",
      "type": "constructor"
    },
    {
      "anonymous": false,
      "inputs": [
        {
          "indexed": false,
          "internalType": "uint256",
          "name": "index",
          "type": "uint256"
        },
        {
          "indexed": false,
          "internalType": "address",
          "name": "account",
          "type": "address"
        },
        {
          "indexed": false,
          "internalType": "uint256",
          "name": "amount",
          "type": "uint256"
        }
      ],
      "name": "Claimed",
      "type": "event"
    },
    {
      "inputs": [
        {
          "internalType": "uint256",
          "name": "index",
          "type": "uint256"
        },
        {
          "internalType": "address",
          "name": "account",
          "type": "address"
        },
        {
          "internalType": "uint256",
          "name": "amount",
          "type": "uint256"
        },
        {
          "internalType": "bytes32[]",
          "name": "merkleProof",
          "type": "bytes32[]"
        }
      ],
      "name": "claim",
      "outputs": [],
      "stateMutability": "nonpayable",
      "type": "function"
    },
    {
      "inputs": [],
      "name": "description",
      "outputs": [
        {
          "internalType": "string",
          "name": "",
          "type": "string"
        }
      ],
      "stateMutability": "view",
      "type": "function"
    },
    {
      "inputs": [
        {
          "internalType": "uint256",
          "name": "index",
          "type": "uint256"
        }
      ],
      "name": "isClaimed",
      "outputs": [
        {
          "internalType": "bool",
          "name": "",
          "type": "bool"
        }
      ],
      "stateMutability": "view",
      "type": "function"
    },
    {
      "inputs": [],
      "name": "merkleRoot",
      "outputs": [
        {
          "internalType": "bytes32",
          "name": "",
          "type": "bytes32"
        }
      ],
      "stateMutability": "view",
      "type": "function"
    },
    {
      "inputs": [],
      "name": "timestamp",
      "outputs": [
        {
          "internalType": "uint256",
          "name": "",
          "type": "uint256"
        }
      ],
      "stateMutability": "view",
      "type": "function"
    },
    {
      "inputs": [],
      "name": "token",
      "outputs": [
        {
          "internalType": "address",
          "name": "",
          "type": "address"
        }
      ],
      "stateMutability": "view",
      "type": "function"
    }
  ],
  "bytecode": "0x60e060405234801561001057600080fd5b5060405161091538038061091583398101604081905261002f9161004d565b60016000556001600160a01b0390921660805260a05260c052610090565b60008060006060848603121561006257600080fd5b83516001600160a01b038116811461007957600080fd5b602085015160409095015190969495509392505050565b60805160a05160c0516108436100d26000396000818160f3015261021b0152600081816081015261031f01526000818161011a01526103cf01526108436000f3fe608060405234801561001057600080fd5b50600436106100625760003560e01c80632e7ba6ef146100675780632eb4a7ab1461007c5780637284e416146100b65780639e34070f146100cb578063b80777ea146100ee578063fc0c546a14610115575b600080fd5b61007a61007536600461062a565b610154565b005b6100a37f000000000000000000000000000000000000000000000000000000000000000081565b6040519081526020015b60405180910390f35b6100be6104f9565b6040516100ad91906106cf565b6100de6100d9366004610724565b610515565b60405190151581526020016100ad565b6100a37f000000000000000000000000000000000000000000000000000000000000000081565b61013c7f000000000000000000000000000000000000000000000000000000000000000081565b6040516001600160a01b0390911681526020016100ad565b600260005414156101ac5760405162461bcd60e51b815260206004820152601f60248201527f5265656e7472616e637947756172643a207265656e7472616e742063616c6c0060448201526064015b60405180910390fd5b60026000556101ba85610515565b156102185760405162461bcd60e51b815260206004820152602860248201527f4d65726b6c654469737472696275746f723a2044726f7020616c72656164792060448201526731b630b4b6b2b21760c11b60648201526084016101a3565b427f0000000000000000000000000000000000000000000000000000000000000000111561029f5760405162461bcd60e51b815260206004820152602e60248201527f4d65726b6c654469737472696275746f723a2054696d657374616d702068617660448201526d32903737ba1032bc3834b932b21760911b60648201526084016101a3565b60408051602081018790526bffffffffffffffffffffffff19606087901b16918101919091526054810184905260009060740160405160208183030381529060405280519060200120905061034a8383808060200260200160405190810160405280939291908181526020018383602002808284376000920191909152507f000000000000000000000000000000000000000000000000000000000000000092508591506105569050565b6103a05760405162461bcd60e51b815260206004820152602160248201527f4d65726b6c654469737472696275746f723a20496e76616c69642070726f6f666044820152601760f91b60648201526084016101a3565b6103a98661056c565b60405163a9059cbb60e01b81526001600160a01b038681166004830152602482018690527f0000000000000000000000000000000000000000000000000000000000000000169063a9059cbb90604401602060405180830381600087803b15801561041357600080fd5b505af1158015610427573d6000803e3d6000fd5b505050506040513d601f19601f8201168201806040525081019061044b919061073d565b6104a35760405162461bcd60e51b815260206004820152602360248201527f4d65726b6c654469737472696275746f723a205472616e73666572206661696c60448201526232b21760e91b60648201526084016101a3565b604080518781526001600160a01b03871660208201529081018590527f4ec90e965519d92681267467f775ada5bd214aa92c0dc93d90a5e880ce9ed0269060600160405180910390a15050600160005550505050565b6040518060600160405280603181526020016107dd6031913981565b60008061052461010084610775565b9050600061053461010085610789565b60009283526001602081905260409093205492901b9182169091149392505050565b60008261056385846105ab565b14949350505050565b600061057a61010083610775565b9050600061058a61010084610789565b600092835260016020819052604090932080549390911b9092179091555050565b600081815b84518110156105f0576105dc828683815181106105cf576105cf61079d565b60200260200101516105f8565b9150806105e8816107b3565b9150506105b0565b509392505050565b6000818310610614576000828152602084905260409020610623565b60008381526020839052604090205b9392505050565b60008060008060006080868803121561064257600080fd5b8535945060208601356001600160a01b038116811461066057600080fd5b935060408601359250606086013567ffffffffffffffff8082111561068457600080fd5b818801915088601f83011261069857600080fd5b8135818111156106a757600080fd5b8960208260051b85010111156106bc57600080fd5b9699959850939650602001949392505050565b600060208083528351808285015260005b818110156106fc578581018301518582016040015282016106e0565b8181111561070e576000604083870101525b50601f01601f1916929092016040019392505050565b60006020828403121561073657600080fd5b5035919050565b60006020828403121561074f57600080fd5b8151801515811461062357600080fd5b634e487b7160e01b600052601260045260246000fd5b6000826107845761078461075f565b500490565b6000826107985761079861075f565b500690565b634e487b7160e01b600052603260045260246000fd5b60006000198214156107d557634e487b7160e01b600052601160045260246000fd5b506001019056fe4d65726b6c65204469737472696275746f7220636f6e7472616374207769746820636f6d6d6f6e2074696d657374616d70a26469706673582212205ccf702664cef5caf198082553b577100bf0b9cc6547a25b79abd96b6b5a951564736f6c63430008090033",
  "linkReferences": {},
  "deployedLinkReferences": {}
}