{
  "_format": "hh-sol-artifact-1",
  "contractName": "MerkleDistributorV2",
  "sourceName": "contracts/MerkleDistributorV2.sol",
  "abi": [
    {
      "inputs": [
        {
          "internalType": "address",
          "name": "token_",
          "type": "address"
        },
        {
          "internalType": "bytes32",
          "name": "merkleRoot_",
          "type": "bytes32"
        },
        {
          "internalType": "uint256",
          "name": "timestamp_",
          "type": "uint256"
        }
      ],
      "stateMutability": "nonpayable",
      "type": "constructor"
    },
    {
      "anonymous": false,
      "inputs": [
        {
          "indexed": false,
          "internalType": "uint256",
          "name": "index",
          "type": "uint256"
        },
        {
          "indexed": false,
          "internalType": "address",
          "name": "account",
          "type": "address"
        },
        {
          "indexed": false,
          "internalType": "uint256",
          "name": "amount",
          "type": "uint256"
        }
      ],
      "name": "Claimed",
      "type": "event"
    },
    {
      "inputs": [
        {
          "internalType": "uint256",
          "name": "index",
          "type": "uint256"
        },
        {
          "internalType": "address",
          "name": "account",
          "type": "address"
        },
        {
          "internalType": "uint256",
          "name": "amount",
          "type": "uint256"
        },
        {
          "internalType": "bytes32[]",
          "name": "merkleProof",
          "type": "bytes32[]"
        }
      ],
      "name": "claim",
      "outputs": [],
      "stateMutability": "nonpayable",
      "type": "function"
    },
    {
      "inputs": [],
      "name": "description",
      "outputs": [
        {
          "internalType": "string",
          "name": "",
          "type": "string"
        }
      ],
      "stateMutability": "view",
      "type": "function"
    },
    {
      "inputs": [
        {
          "internalType": "uint256",
          "name": "index",
          "type": "uint256"
        }
      ],
      "name": "isClaimed",
      "outputs": [
        {
          "internalType": "bool",
          "name": "",
          "type": "bool"
        }
      ],
      "stateMutability": "view",
      "type": "function"
    },
    {
      "inputs": [],
      "name": "merkleRoot",
      "outputs": [
        {
          "internalType": "bytes32",
          "name": "",
          "type": "bytes32"
        }
      ],
      "stateMutability": "view",
      "type": "function"
    },
    {
      "inputs": [],
      "name": "timestamp",
      "outputs": [
        {
          "internalType": "uint256",
          "name": "",
          "type": "uint256"
        }
      ],
      "stateMutability": "view",
      "type": "function"
    },
    {
      "inputs": [],
      "name": "token",
      "outputs": [
        {
          "internalType": "address",
          "name": "",
          "type": "address"
        }
      ],
      "stateMutability": "view",
      "type": "function"
    }
  ],
  "bytecode": "0x60e060405234801561001057600080fd5b506040516108b23803806108b283398101604081905261002f91610048565b6001600160a01b0390921660805260a05260c05261008b565b60008060006060848603121561005d57600080fd5b83516001600160a01b038116811461007457600080fd5b602085015160409095015190969495509392505050565b60805160a05160c0516107e56100cd6000396000818160f301526101c3015260008181608101526102c701526000818161011a015261037701526107e56000f3fe608060405234801561001057600080fd5b50600436106100625760003560e01c80632e7ba6ef146100675780632eb4a7ab1461007c5780637284e416146100b65780639e34070f146100cb578063b80777ea146100ee578063fc0c546a14610115575b600080fd5b61007a6100753660046105cc565b610154565b005b6100a37f000000000000000000000000000000000000000000000000000000000000000081565b6040519081526020015b60405180910390f35b6100be61049c565b6040516100ad9190610671565b6100de6100d93660046106c6565b6104b8565b60405190151581526020016100ad565b6100a37f000000000000000000000000000000000000000000000000000000000000000081565b61013c7f000000000000000000000000000000000000000000000000000000000000000081565b6040516001600160a01b0390911681526020016100ad565b61015d856104b8565b156101c05760405162461bcd60e51b815260206004820152602860248201527f4d65726b6c654469737472696275746f723a2044726f7020616c72656164792060448201526731b630b4b6b2b21760c11b60648201526084015b60405180910390fd5b427f000000000000000000000000000000000000000000000000000000000000000011156102475760405162461bcd60e51b815260206004820152602e60248201527f4d65726b6c654469737472696275746f723a2054696d657374616d702068617660448201526d32903737ba1032bc3834b932b21760911b60648201526084016101b7565b60408051602081018790526bffffffffffffffffffffffff19606087901b1691810191909152605481018490526000906074016040516020818303038152906040528051906020012090506102f28383808060200260200160405190810160405280939291908181526020018383602002808284376000920191909152507f000000000000000000000000000000000000000000000000000000000000000092508591506104f99050565b6103485760405162461bcd60e51b815260206004820152602160248201527f4d65726b6c654469737472696275746f723a20496e76616c69642070726f6f666044820152601760f91b60648201526084016101b7565b6103518661050f565b60405163a9059cbb60e01b81526001600160a01b038681166004830152602482018690527f0000000000000000000000000000000000000000000000000000000000000000169063a9059cbb90604401602060405180830381600087803b1580156103bb57600080fd5b505af11580156103cf573d6000803e3d6000fd5b505050506040513d601f19601f820116820180604052508101906103f391906106df565b61044b5760405162461bcd60e51b815260206004820152602360248201527f4d65726b6c654469737472696275746f723a205472616e73666572206661696c60448201526232b21760e91b60648201526084016101b7565b604080518781526001600160a01b03871660208201529081018590527f4ec90e965519d92681267467f775ada5bd214aa92c0dc93d90a5e880ce9ed0269060600160405180910390a1505050505050565b60405180606001604052806031815260200161077f6031913981565b6000806104c761010084610717565b905060006104d76101008561072b565b60009283526020839052604090922054600190921b9182169091149392505050565b600082610506858461054d565b14949350505050565b600061051d61010083610717565b9050600061052d6101008461072b565b6000928352602083905260409092208054600190931b9092179091555050565b600081815b84518110156105925761057e828683815181106105715761057161073f565b602002602001015161059a565b91508061058a81610755565b915050610552565b509392505050565b60008183106105b65760008281526020849052604090206105c5565b60008381526020839052604090205b9392505050565b6000806000806000608086880312156105e457600080fd5b8535945060208601356001600160a01b038116811461060257600080fd5b935060408601359250606086013567ffffffffffffffff8082111561062657600080fd5b818801915088601f83011261063a57600080fd5b81358181111561064957600080fd5b8960208260051b850101111561065e57600080fd5b9699959850939650602001949392505050565b600060208083528351808285015260005b8181101561069e57858101830151858201604001528201610682565b818111156106b0576000604083870101525b50601f01601f1916929092016040019392505050565b6000602082840312156106d857600080fd5b5035919050565b6000602082840312156106f157600080fd5b815180151581146105c557600080fd5b634e487b7160e01b600052601260045260246000fd5b60008261072657610726610701565b500490565b60008261073a5761073a610701565b500690565b634e487b7160e01b600052603260045260246000fd5b600060001982141561077757634e487b7160e01b600052601160045260246000fd5b506001019056fe4d65726b6c65204469737472696275746f7220636f6e7472616374207769746820636f6d6d6f6e2074696d657374616d70a264697066735822122074ada64eff754a97a66ea23635dfa10c313f9624cda19ee441b371a863d9eda064736f6c63430008090033",
  "linkReferences": {},
  "deployedLinkReferences": {}
}