{
  "_format": "hh-sol-artifact-1",
  "contractName": "MerkleDistributorERC721V1",
  "sourceName": "contracts/MerkleDistributorERC721V1.sol",
  "abi": [
    {
      "inputs": [
        {
          "internalType": "string",
          "name": "name",
          "type": "string"
        },
        {
          "internalType": "string",
          "name": "symbol",
          "type": "string"
        },
        {
          "internalType": "bytes32",
          "name": "merkleroot",
          "type": "bytes32"
        }
      ],
      "stateMutability": "nonpayable",
      "type": "constructor"
    },
    {
      "anonymous": false,
      "inputs": [
        {
          "indexed": true,
          "internalType": "address",
          "name": "owner",
          "type": "address"
        },
        {
          "indexed": true,
          "internalType": "address",
          "name": "approved",
          "type": "address"
        },
        {
          "indexed": true,
          "internalType": "uint256",
          "name": "tokenId",
          "type": "uint256"
        }
      ],
      "name": "Approval",
      "type": "event"
    },
    {
      "anonymous": false,
      "inputs": [
        {
          "indexed": true,
          "internalType": "address",
          "name": "owner",
          "type": "address"
        },
        {
          "indexed": true,
          "internalType": "address",
          "name": "operator",
          "type": "address"
        },
        {
          "indexed": false,
          "internalType": "bool",
          "name": "approved",
          "type": "bool"
        }
      ],
      "name": "ApprovalForAll",
      "type": "event"
    },
    {
      "anonymous": false,
      "inputs": [
        {
          "indexed": true,
          "internalType": "address",
          "name": "from",
          "type": "address"
        },
        {
          "indexed": true,
          "internalType": "address",
          "name": "to",
          "type": "address"
        },
        {
          "indexed": true,
          "internalType": "uint256",
          "name": "tokenId",
          "type": "uint256"
        }
      ],
      "name": "Transfer",
      "type": "event"
    },
    {
      "inputs": [
        {
          "internalType": "address",
          "name": "to",
          "type": "address"
        },
        {
          "internalType": "uint256",
          "name": "tokenId",
          "type": "uint256"
        }
      ],
      "name": "approve",
      "outputs": [],
      "stateMutability": "nonpayable",
      "type": "function"
    },
    {
      "inputs": [
        {
          "internalType": "address",
          "name": "owner",
          "type": "address"
        }
      ],
      "name": "balanceOf",
      "outputs": [
        {
          "internalType": "uint256",
          "name": "",
          "type": "uint256"
        }
      ],
      "stateMutability": "view",
      "type": "function"
    },
    {
      "inputs": [
        {
          "internalType": "uint256",
          "name": "tokenId",
          "type": "uint256"
        }
      ],
      "name": "getApproved",
      "outputs": [
        {
          "internalType": "address",
          "name": "",
          "type": "address"
        }
      ],
      "stateMutability": "view",
      "type": "function"
    },
    {
      "inputs": [
        {
          "internalType": "address",
          "name": "owner",
          "type": "address"
        },
        {
          "internalType": "address",
          "name": "operator",
          "type": "address"
        }
      ],
      "name": "isApprovedForAll",
      "outputs": [
        {
          "internalType": "bool",
          "name": "",
          "type": "bool"
        }
      ],
      "stateMutability": "view",
      "type": "function"
    },
    {
      "inputs": [],
      "name": "name",
      "outputs": [
        {
          "internalType": "string",
          "name": "",
          "type": "string"
        }
      ],
      "stateMutability": "view",
      "type": "function"
    },
    {
      "inputs": [
        {
          "internalType": "uint256",
          "name": "tokenId",
          "type": "uint256"
        }
      ],
      "name": "ownerOf",
      "outputs": [
        {
          "internalType": "address",
          "name": "",
          "type": "address"
        }
      ],
      "stateMutability": "view",
      "type": "function"
    },
    {
      "inputs": [
        {
          "internalType": "address",
          "name": "account",
          "type": "address"
        },
        {
          "internalType": "uint256",
          "name": "tokenId",
          "type": "uint256"
        },
        {
          "internalType": "bytes32[]",
          "name": "proof",
          "type": "bytes32[]"
        }
      ],
      "name": "redeem",
      "outputs": [],
      "stateMutability": "nonpayable",
      "type": "function"
    },
    {
      "inputs": [],
      "name": "root",
      "outputs": [
        {
          "internalType": "bytes32",
          "name": "",
          "type": "bytes32"
        }
      ],
      "stateMutability": "view",
      "type": "function"
    },
    {
      "inputs": [
        {
          "internalType": "address",
          "name": "from",
          "type": "address"
        },
        {
          "internalType": "address",
          "name": "to",
          "type": "address"
        },
        {
          "internalType": "uint256",
          "name": "tokenId",
          "type": "uint256"
        }
      ],
      "name": "safeTransferFrom",
      "outputs": [],
      "stateMutability": "nonpayable",
      "type": "function"
    },
    {
      "inputs": [
        {
          "internalType": "address",
          "name": "from",
          "type": "address"
        },
        {
          "internalType": "address",
          "name": "to",
          "type": "address"
        },
        {
          "internalType": "uint256",
          "name": "tokenId",
          "type": "uint256"
        },
        {
          "internalType": "bytes",
          "name": "data",
          "type": "bytes"
        }
      ],
      "name": "safeTransferFrom",
      "outputs": [],
      "stateMutability": "nonpayable",
      "type": "function"
    },
    {
      "inputs": [
        {
          "internalType": "address",
          "name": "operator",
          "type": "address"
        },
        {
          "internalType": "bool",
          "name": "approved",
          "type": "bool"
        }
      ],
      "name": "setApprovalForAll",
      "outputs": [],
      "stateMutability": "nonpayable",
      "type": "function"
    },
    {
      "inputs": [
        {
          "internalType": "bytes4",
          "name": "interfaceId",
          "type": "bytes4"
        }
      ],
      "name": "supportsInterface",
      "outputs": [
        {
          "internalType": "bool",
          "name": "",
          "type": "bool"
        }
      ],
      "stateMutability": "view",
      "type": "function"
    },
    {
      "inputs": [],
      "name": "symbol",
      "outputs": [
        {
          "internalType": "string",
          "name": "",
          "type": "string"
        }
      ],
      "stateMutability": "view",
      "type": "function"
    },
    {
      "inputs": [
        {
          "internalType": "uint256",
          "name": "tokenId",
          "type": "uint256"
        }
      ],
      "name": "tokenURI",
      "outputs": [
        {
          "internalType": "string",
          "name": "",
          "type": "string"
        }
      ],
      "stateMutability": "view",
      "type": "function"
    },
    {
      "inputs": [
        {
          "internalType": "address",
          "name": "from",
          "type": "address"
        },
        {
          "internalType": "address",
          "name": "to",
          "type": "address"
        },
        {
          "internalType": "uint256",
          "name": "tokenId",
          "type": "uint256"
        }
      ],
      "name": "transferFrom",
      "outputs": [],
      "stateMutability": "nonpayable",
      "type": "function"
    }
  ],
  "bytecode": "0x60a06040523480156200001157600080fd5b5060405162001831380380620018318339810160408190526200003491620001e5565b8251839083906200004d90600090602085019062000072565b5080516200006390600190602084019062000072565b50505060805250620002959050565b828054620000809062000258565b90600052602060002090601f016020900481019282620000a45760008555620000ef565b82601f10620000bf57805160ff1916838001178555620000ef565b82800160010185558215620000ef579182015b82811115620000ef578251825591602001919060010190620000d2565b50620000fd92915062000101565b5090565b5b80821115620000fd576000815560010162000102565b634e487b7160e01b600052604160045260246000fd5b600082601f8301126200014057600080fd5b81516001600160401b03808211156200015d576200015d62000118565b604051601f8301601f19908116603f0116810190828211818310171562000188576200018862000118565b81604052838152602092508683858801011115620001a557600080fd5b600091505b83821015620001c95785820183015181830184015290820190620001aa565b83821115620001db5760008385830101525b9695505050505050565b600080600060608486031215620001fb57600080fd5b83516001600160401b03808211156200021357600080fd5b62000221878388016200012e565b945060208601519150808211156200023857600080fd5b5062000247868287016200012e565b925050604084015190509250925092565b600181811c908216806200026d57607f821691505b602082108114156200028f57634e487b7160e01b600052602260045260246000fd5b50919050565b608051611579620002b860003960008181610266015261087e01526115796000f3fe608060405234801561001057600080fd5b50600436106100f55760003560e01c80636352211e11610097578063b88d4fde11610066578063b88d4fde146101ff578063c87b56dd14610212578063e985e9c514610225578063ebf0c7171461026157600080fd5b80636352211e146101b057806370a08231146101c357806395d89b41146101e4578063a22cb465146101ec57600080fd5b8063095ea7b3116100d3578063095ea7b31461016257806314132f481461017757806323b872dd1461018a57806342842e0e1461019d57600080fd5b806301ffc9a7146100fa57806306fdde0314610122578063081812fc14610137575b600080fd5b61010d610108366004611002565b610288565b60405190151581526020015b60405180910390f35b61012a6102da565b6040516101199190611077565b61014a61014536600461108a565b61036c565b6040516001600160a01b039091168152602001610119565b6101756101703660046110bf565b610393565b005b6101756101853660046110e9565b6104ae565b610175610198366004611173565b610562565b6101756101ab366004611173565b610593565b61014a6101be36600461108a565b6105ae565b6101d66101d13660046111af565b61060e565b604051908152602001610119565b61012a610694565b6101756101fa3660046111ca565b6106a3565b61017561020d36600461121c565b6106b2565b61012a61022036600461108a565b6106e4565b61010d6102333660046112f8565b6001600160a01b03918216600090815260056020908152604080832093909416825291909152205460ff1690565b6101d67f000000000000000000000000000000000000000000000000000000000000000081565b60006001600160e01b031982166380ac58cd60e01b14806102b957506001600160e01b03198216635b5e139f60e01b145b806102d457506301ffc9a760e01b6001600160e01b03198316145b92915050565b6060600080546102e99061132b565b80601f01602080910402602001604051908101604052809291908181526020018280546103159061132b565b80156103625780601f1061033757610100808354040283529160200191610362565b820191906000526020600020905b81548152906001019060200180831161034557829003601f168201915b5050505050905090565b600061037782610758565b506000908152600460205260409020546001600160a01b031690565b600061039e826105ae565b9050806001600160a01b0316836001600160a01b031614156104115760405162461bcd60e51b815260206004820152602160248201527f4552433732313a20617070726f76616c20746f2063757272656e74206f776e656044820152603960f91b60648201526084015b60405180910390fd5b336001600160a01b038216148061042d575061042d8133610233565b61049f5760405162461bcd60e51b815260206004820152603e60248201527f4552433732313a20617070726f76652063616c6c6572206973206e6f7420746f60448201527f6b656e206f776e6572206e6f7220617070726f76656420666f7220616c6c00006064820152608401610408565b6104a983836107ba565b505050565b6104f46104bb8585610828565b83838080602002602001604051908101604052809392919081815260200183836020028082843760009201919091525061087692505050565b6105525760405162461bcd60e51b815260206004820152602960248201527f4d65726b6c6520446973747269627574696f6e3a20496e76616c6964206d657260448201526835b63290383937b7b360b91b6064820152608401610408565b61055c84846108a3565b50505050565b61056c33826108bd565b6105885760405162461bcd60e51b815260040161040890611366565b6104a983838361093c565b6104a9838383604051806020016040528060008152506106b2565b6000818152600260205260408120546001600160a01b0316806102d45760405162461bcd60e51b8152602060048201526018602482015277115490cdcc8c4e881a5b9d985b1a59081d1bdad95b88125160421b6044820152606401610408565b60006001600160a01b0382166106785760405162461bcd60e51b815260206004820152602960248201527f4552433732313a2061646472657373207a65726f206973206e6f7420612076616044820152683634b21037bbb732b960b91b6064820152608401610408565b506001600160a01b031660009081526003602052604090205490565b6060600180546102e99061132b565b6106ae338383610ad8565b5050565b6106bc33836108bd565b6106d85760405162461bcd60e51b815260040161040890611366565b61055c84848484610ba7565b60606106ef82610758565b600061070660408051602081019091526000815290565b905060008151116107265760405180602001604052806000815250610751565b8061073084610bda565b6040516020016107419291906113b4565b6040516020818303038152906040525b9392505050565b6000818152600260205260409020546001600160a01b03166107b75760405162461bcd60e51b8152602060048201526018602482015277115490cdcc8c4e881a5b9d985b1a59081d1bdad95b88125160421b6044820152606401610408565b50565b600081815260046020526040902080546001600160a01b0319166001600160a01b03841690811790915581906107ef826105ae565b6001600160a01b03167f8c5be1e5ebec7d5bd14f71427d1e84f3dd0314c0f7b2291e5b200ac8c7c3b92560405160405180910390a45050565b6000818360405160200161085892919091825260601b6bffffffffffffffffffffffff1916602082015260340190565b60405160208183030381529060405280519060200120905092915050565b6000610751827f000000000000000000000000000000000000000000000000000000000000000085610cd8565b6106ae828260405180602001604052806000815250610cee565b6000806108c9836105ae565b9050806001600160a01b0316846001600160a01b0316148061091057506001600160a01b0380821660009081526005602090815260408083209388168352929052205460ff165b806109345750836001600160a01b03166109298461036c565b6001600160a01b0316145b949350505050565b826001600160a01b031661094f826105ae565b6001600160a01b0316146109b35760405162461bcd60e51b815260206004820152602560248201527f4552433732313a207472616e736665722066726f6d20696e636f72726563742060448201526437bbb732b960d91b6064820152608401610408565b6001600160a01b038216610a155760405162461bcd60e51b8152602060048201526024808201527f4552433732313a207472616e7366657220746f20746865207a65726f206164646044820152637265737360e01b6064820152608401610408565b610a206000826107ba565b6001600160a01b0383166000908152600360205260408120805460019290610a499084906113f9565b90915550506001600160a01b0382166000908152600360205260408120805460019290610a77908490611410565b909155505060008181526002602052604080822080546001600160a01b0319166001600160a01b0386811691821790925591518493918716917fddf252ad1be2c89b69c2b068fc378daa952ba7f163c4a11628f55a4df523b3ef91a4505050565b816001600160a01b0316836001600160a01b03161415610b3a5760405162461bcd60e51b815260206004820152601960248201527f4552433732313a20617070726f766520746f2063616c6c6572000000000000006044820152606401610408565b6001600160a01b03838116600081815260056020908152604080832094871680845294825291829020805460ff191686151590811790915591519182527f17307eab39ab6107e8899845ad3d59bd9653f200f220920489ca2b5937696c31910160405180910390a3505050565b610bb284848461093c565b610bbe84848484610d21565b61055c5760405162461bcd60e51b815260040161040890611428565b606081610bfe5750506040805180820190915260018152600360fc1b602082015290565b8160005b8115610c285780610c128161147a565b9150610c219050600a836114ab565b9150610c02565b60008167ffffffffffffffff811115610c4357610c43611206565b6040519080825280601f01601f191660200182016040528015610c6d576020820181803683370190505b5090505b841561093457610c826001836113f9565b9150610c8f600a866114bf565b610c9a906030611410565b60f81b818381518110610caf57610caf6114d3565b60200101906001600160f81b031916908160001a905350610cd1600a866114ab565b9450610c71565b600082610ce58584610e2e565b14949350505050565b610cf88383610e7b565b610d056000848484610d21565b6104a95760405162461bcd60e51b815260040161040890611428565b60006001600160a01b0384163b15610e2357604051630a85bd0160e11b81526001600160a01b0385169063150b7a0290610d659033908990889088906004016114e9565b602060405180830381600087803b158015610d7f57600080fd5b505af1925050508015610daf575060408051601f3d908101601f19168201909252610dac91810190611526565b60015b610e09573d808015610ddd576040519150601f19603f3d011682016040523d82523d6000602084013e610de2565b606091505b508051610e015760405162461bcd60e51b815260040161040890611428565b805181602001fd5b6001600160e01b031916630a85bd0160e11b149050610934565b506001949350505050565b600081815b8451811015610e7357610e5f82868381518110610e5257610e526114d3565b6020026020010151610fbd565b915080610e6b8161147a565b915050610e33565b509392505050565b6001600160a01b038216610ed15760405162461bcd60e51b815260206004820181905260248201527f4552433732313a206d696e7420746f20746865207a65726f20616464726573736044820152606401610408565b6000818152600260205260409020546001600160a01b031615610f365760405162461bcd60e51b815260206004820152601c60248201527f4552433732313a20746f6b656e20616c7265616479206d696e746564000000006044820152606401610408565b6001600160a01b0382166000908152600360205260408120805460019290610f5f908490611410565b909155505060008181526002602052604080822080546001600160a01b0319166001600160a01b03861690811790915590518392907fddf252ad1be2c89b69c2b068fc378daa952ba7f163c4a11628f55a4df523b3ef908290a45050565b6000818310610fd9576000828152602084905260409020610751565b6000838152602083905260409020610751565b6001600160e01b0319811681146107b757600080fd5b60006020828403121561101457600080fd5b813561075181610fec565b60005b8381101561103a578181015183820152602001611022565b8381111561055c5750506000910152565b6000815180845261106381602086016020860161101f565b601f01601f19169290920160200192915050565b602081526000610751602083018461104b565b60006020828403121561109c57600080fd5b5035919050565b80356001600160a01b03811681146110ba57600080fd5b919050565b600080604083850312156110d257600080fd5b6110db836110a3565b946020939093013593505050565b600080600080606085870312156110ff57600080fd5b611108856110a3565b935060208501359250604085013567ffffffffffffffff8082111561112c57600080fd5b818701915087601f83011261114057600080fd5b81358181111561114f57600080fd5b8860208260051b850101111561116457600080fd5b95989497505060200194505050565b60008060006060848603121561118857600080fd5b611191846110a3565b925061119f602085016110a3565b9150604084013590509250925092565b6000602082840312156111c157600080fd5b610751826110a3565b600080604083850312156111dd57600080fd5b6111e6836110a3565b9150602083013580151581146111fb57600080fd5b809150509250929050565b634e487b7160e01b600052604160045260246000fd5b6000806000806080858703121561123257600080fd5b61123b856110a3565b9350611249602086016110a3565b925060408501359150606085013567ffffffffffffffff8082111561126d57600080fd5b818701915087601f83011261128157600080fd5b81358181111561129357611293611206565b604051601f8201601f19908116603f011681019083821181831017156112bb576112bb611206565b816040528281528a60208487010111156112d457600080fd5b82602086016020830137600060208483010152809550505050505092959194509250565b6000806040838503121561130b57600080fd5b611314836110a3565b9150611322602084016110a3565b90509250929050565b600181811c9082168061133f57607f821691505b6020821081141561136057634e487b7160e01b600052602260045260246000fd5b50919050565b6020808252602e908201527f4552433732313a2063616c6c6572206973206e6f7420746f6b656e206f776e6560408201526d1c881b9bdc88185c1c1c9bdd995960921b606082015260800190565b600083516113c681846020880161101f565b8351908301906113da81836020880161101f565b01949350505050565b634e487b7160e01b600052601160045260246000fd5b60008282101561140b5761140b6113e3565b500390565b60008219821115611423576114236113e3565b500190565b60208082526032908201527f4552433732313a207472616e7366657220746f206e6f6e20455243373231526560408201527131b2b4bb32b91034b6b83632b6b2b73a32b960711b606082015260800190565b600060001982141561148e5761148e6113e3565b5060010190565b634e487b7160e01b600052601260045260246000fd5b6000826114ba576114ba611495565b500490565b6000826114ce576114ce611495565b500690565b634e487b7160e01b600052603260045260246000fd5b6001600160a01b038581168252841660208201526040810183905260806060820181905260009061151c9083018461104b565b9695505050505050565b60006020828403121561153857600080fd5b815161075181610fec56fea2646970667358221220103143609a861014d32e9c81a97f4c51f9ef6a3826b3c87ad3bcf313648966a664736f6c63430008090033",
  "linkReferences": {},
  "deployedLinkReferences": {}
}