{
  "_format": "hh-sol-artifact-1",
  "contractName": "MerkleDistributorERC721V2",
  "sourceName": "contracts/MerkleDistributorERC721V2.sol",
  "abi": [
    {
      "inputs": [
        {
          "internalType": "string",
          "name": "name_",
          "type": "string"
        },
        {
          "internalType": "string",
          "name": "symbol_",
          "type": "string"
        },
        {
          "internalType": "bytes32",
          "name": "merkleroot_",
          "type": "bytes32"
        },
        {
          "internalType": "uint256",
          "name": "timelock_",
          "type": "uint256"
        }
      ],
      "stateMutability": "nonpayable",
      "type": "constructor"
    },
    {
      "anonymous": false,
      "inputs": [
        {
          "indexed": true,
          "internalType": "address",
          "name": "owner",
          "type": "address"
        },
        {
          "indexed": true,
          "internalType": "address",
          "name": "approved",
          "type": "address"
        },
        {
          "indexed": true,
          "internalType": "uint256",
          "name": "tokenId",
          "type": "uint256"
        }
      ],
      "name": "Approval",
      "type": "event"
    },
    {
      "anonymous": false,
      "inputs": [
        {
          "indexed": true,
          "internalType": "address",
          "name": "owner",
          "type": "address"
        },
        {
          "indexed": true,
          "internalType": "address",
          "name": "operator",
          "type": "address"
        },
        {
          "indexed": false,
          "internalType": "bool",
          "name": "approved",
          "type": "bool"
        }
      ],
      "name": "ApprovalForAll",
      "type": "event"
    },
    {
      "anonymous": false,
      "inputs": [
        {
          "indexed": true,
          "internalType": "address",
          "name": "from",
          "type": "address"
        },
        {
          "indexed": true,
          "internalType": "address",
          "name": "to",
          "type": "address"
        },
        {
          "indexed": true,
          "internalType": "uint256",
          "name": "tokenId",
          "type": "uint256"
        }
      ],
      "name": "Transfer",
      "type": "event"
    },
    {
      "inputs": [
        {
          "internalType": "address",
          "name": "to",
          "type": "address"
        },
        {
          "internalType": "uint256",
          "name": "tokenId",
          "type": "uint256"
        }
      ],
      "name": "approve",
      "outputs": [],
      "stateMutability": "nonpayable",
      "type": "function"
    },
    {
      "inputs": [
        {
          "internalType": "address",
          "name": "owner",
          "type": "address"
        }
      ],
      "name": "balanceOf",
      "outputs": [
        {
          "internalType": "uint256",
          "name": "",
          "type": "uint256"
        }
      ],
      "stateMutability": "view",
      "type": "function"
    },
    {
      "inputs": [
        {
          "internalType": "uint256",
          "name": "tokenId",
          "type": "uint256"
        }
      ],
      "name": "getApproved",
      "outputs": [
        {
          "internalType": "address",
          "name": "",
          "type": "address"
        }
      ],
      "stateMutability": "view",
      "type": "function"
    },
    {
      "inputs": [
        {
          "internalType": "address",
          "name": "owner",
          "type": "address"
        },
        {
          "internalType": "address",
          "name": "operator",
          "type": "address"
        }
      ],
      "name": "isApprovedForAll",
      "outputs": [
        {
          "internalType": "bool",
          "name": "",
          "type": "bool"
        }
      ],
      "stateMutability": "view",
      "type": "function"
    },
    {
      "inputs": [],
      "name": "name",
      "outputs": [
        {
          "internalType": "string",
          "name": "",
          "type": "string"
        }
      ],
      "stateMutability": "view",
      "type": "function"
    },
    {
      "inputs": [
        {
          "internalType": "uint256",
          "name": "tokenId",
          "type": "uint256"
        }
      ],
      "name": "ownerOf",
      "outputs": [
        {
          "internalType": "address",
          "name": "",
          "type": "address"
        }
      ],
      "stateMutability": "view",
      "type": "function"
    },
    {
      "inputs": [
        {
          "internalType": "address",
          "name": "account",
          "type": "address"
        },
        {
          "internalType": "uint256",
          "name": "tokenId",
          "type": "uint256"
        },
        {
          "internalType": "bytes32[]",
          "name": "proof",
          "type": "bytes32[]"
        }
      ],
      "name": "redeem",
      "outputs": [],
      "stateMutability": "nonpayable",
      "type": "function"
    },
    {
      "inputs": [],
      "name": "root",
      "outputs": [
        {
          "internalType": "bytes32",
          "name": "",
          "type": "bytes32"
        }
      ],
      "stateMutability": "view",
      "type": "function"
    },
    {
      "inputs": [
        {
          "internalType": "address",
          "name": "from",
          "type": "address"
        },
        {
          "internalType": "address",
          "name": "to",
          "type": "address"
        },
        {
          "internalType": "uint256",
          "name": "tokenId",
          "type": "uint256"
        }
      ],
      "name": "safeTransferFrom",
      "outputs": [],
      "stateMutability": "nonpayable",
      "type": "function"
    },
    {
      "inputs": [
        {
          "internalType": "address",
          "name": "from",
          "type": "address"
        },
        {
          "internalType": "address",
          "name": "to",
          "type": "address"
        },
        {
          "internalType": "uint256",
          "name": "tokenId",
          "type": "uint256"
        },
        {
          "internalType": "bytes",
          "name": "data",
          "type": "bytes"
        }
      ],
      "name": "safeTransferFrom",
      "outputs": [],
      "stateMutability": "nonpayable",
      "type": "function"
    },
    {
      "inputs": [
        {
          "internalType": "address",
          "name": "operator",
          "type": "address"
        },
        {
          "internalType": "bool",
          "name": "approved",
          "type": "bool"
        }
      ],
      "name": "setApprovalForAll",
      "outputs": [],
      "stateMutability": "nonpayable",
      "type": "function"
    },
    {
      "inputs": [
        {
          "internalType": "bytes4",
          "name": "interfaceId",
          "type": "bytes4"
        }
      ],
      "name": "supportsInterface",
      "outputs": [
        {
          "internalType": "bool",
          "name": "",
          "type": "bool"
        }
      ],
      "stateMutability": "view",
      "type": "function"
    },
    {
      "inputs": [],
      "name": "symbol",
      "outputs": [
        {
          "internalType": "string",
          "name": "",
          "type": "string"
        }
      ],
      "stateMutability": "view",
      "type": "function"
    },
    {
      "inputs": [],
      "name": "timestamp",
      "outputs": [
        {
          "internalType": "uint256",
          "name": "",
          "type": "uint256"
        }
      ],
      "stateMutability": "view",
      "type": "function"
    },
    {
      "inputs": [
        {
          "internalType": "uint256",
          "name": "tokenId",
          "type": "uint256"
        }
      ],
      "name": "tokenURI",
      "outputs": [
        {
          "internalType": "string",
          "name": "",
          "type": "string"
        }
      ],
      "stateMutability": "view",
      "type": "function"
    },
    {
      "inputs": [
        {
          "internalType": "address",
          "name": "from",
          "type": "address"
        },
        {
          "internalType": "address",
          "name": "to",
          "type": "address"
        },
        {
          "internalType": "uint256",
          "name": "tokenId",
          "type": "uint256"
        }
      ],
      "name": "transferFrom",
      "outputs": [],
      "stateMutability": "nonpayable",
      "type": "function"
    }
  ],
  "bytecode": "0x60c06040523480156200001157600080fd5b5060405162001909380380620019098339810160408190526200003491620001eb565b8351849084906200004d90600090602085019062000078565b5080516200006390600190602084019062000078565b50505060809190915260a05250620002a29050565b828054620000869062000265565b90600052602060002090601f016020900481019282620000aa5760008555620000f5565b82601f10620000c557805160ff1916838001178555620000f5565b82800160010185558215620000f5579182015b82811115620000f5578251825591602001919060010190620000d8565b506200010392915062000107565b5090565b5b8082111562000103576000815560010162000108565b634e487b7160e01b600052604160045260246000fd5b600082601f8301126200014657600080fd5b81516001600160401b03808211156200016357620001636200011e565b604051601f8301601f19908116603f011681019082821181831017156200018e576200018e6200011e565b81604052838152602092508683858801011115620001ab57600080fd5b600091505b83821015620001cf5785820183015181830184015290820190620001b0565b83821115620001e15760008385830101525b9695505050505050565b600080600080608085870312156200020257600080fd5b84516001600160401b03808211156200021a57600080fd5b620002288883890162000134565b955060208701519150808211156200023f57600080fd5b506200024e8782880162000134565b604087015160609097015195989097509350505050565b600181811c908216806200027a57607f821691505b602082108114156200029c57634e487b7160e01b600052602260045260246000fd5b50919050565b60805160a051611633620002d66000396000818161020f01526104e2015260008181610298015261093801526116336000f3fe608060405234801561001057600080fd5b50600436106101005760003560e01c806370a0823111610097578063b88d4fde11610066578063b88d4fde14610231578063c87b56dd14610244578063e985e9c514610257578063ebf0c7171461029357600080fd5b806370a08231146101ce57806395d89b41146101ef578063a22cb465146101f7578063b80777ea1461020a57600080fd5b806314132f48116100d357806314132f481461018257806323b872dd1461019557806342842e0e146101a85780636352211e146101bb57600080fd5b806301ffc9a71461010557806306fdde031461012d578063081812fc14610142578063095ea7b31461016d575b600080fd5b6101186101133660046110bc565b6102ba565b60405190151581526020015b60405180910390f35b61013561030c565b6040516101249190611131565b610155610150366004611144565b61039e565b6040516001600160a01b039091168152602001610124565b61018061017b366004611179565b6103c5565b005b6101806101903660046111a3565b6104e0565b6101806101a336600461122d565b61061c565b6101806101b636600461122d565b61064d565b6101556101c9366004611144565b610668565b6101e16101dc366004611269565b6106c8565b604051908152602001610124565b61013561074e565b610180610205366004611284565b61075d565b6101e17f000000000000000000000000000000000000000000000000000000000000000081565b61018061023f3660046112d6565b61076c565b610135610252366004611144565b61079e565b6101186102653660046113b2565b6001600160a01b03918216600090815260056020908152604080832093909416825291909152205460ff1690565b6101e17f000000000000000000000000000000000000000000000000000000000000000081565b60006001600160e01b031982166380ac58cd60e01b14806102eb57506001600160e01b03198216635b5e139f60e01b145b8061030657506301ffc9a760e01b6001600160e01b03198316145b92915050565b60606000805461031b906113e5565b80601f0160208091040260200160405190810160405280929190818152602001828054610347906113e5565b80156103945780601f1061036957610100808354040283529160200191610394565b820191906000526020600020905b81548152906001019060200180831161037757829003601f168201915b5050505050905090565b60006103a982610812565b506000908152600460205260409020546001600160a01b031690565b60006103d082610668565b9050806001600160a01b0316836001600160a01b031614156104435760405162461bcd60e51b815260206004820152602160248201527f4552433732313a20617070726f76616c20746f2063757272656e74206f776e656044820152603960f91b60648201526084015b60405180910390fd5b336001600160a01b038216148061045f575061045f8133610265565b6104d15760405162461bcd60e51b815260206004820152603e60248201527f4552433732313a20617070726f76652063616c6c6572206973206e6f7420746f60448201527f6b656e206f776e6572206e6f7220617070726f76656420666f7220616c6c0000606482015260840161043a565b6104db8383610874565b505050565b7f00000000000000000000000000000000000000000000000000000000000000004210156105685760405162461bcd60e51b815260206004820152602f60248201527f4d65726b6c6520446973747269627574696f6e3a2054696d656c6f636b20686160448201526e3b32903737ba1032bc3834b932b21760891b606482015260840161043a565b6105ae61057585856108e2565b83838080602002602001604051908101604052809392919081815260200183836020028082843760009201919091525061093092505050565b61060c5760405162461bcd60e51b815260206004820152602960248201527f4d65726b6c6520446973747269627574696f6e3a20496e76616c6964206d657260448201526835b63290383937b7b360b91b606482015260840161043a565b610616848461095d565b50505050565b6106263382610977565b6106425760405162461bcd60e51b815260040161043a90611420565b6104db8383836109f6565b6104db8383836040518060200160405280600081525061076c565b6000818152600260205260408120546001600160a01b0316806103065760405162461bcd60e51b8152602060048201526018602482015277115490cdcc8c4e881a5b9d985b1a59081d1bdad95b88125160421b604482015260640161043a565b60006001600160a01b0382166107325760405162461bcd60e51b815260206004820152602960248201527f4552433732313a2061646472657373207a65726f206973206e6f7420612076616044820152683634b21037bbb732b960b91b606482015260840161043a565b506001600160a01b031660009081526003602052604090205490565b60606001805461031b906113e5565b610768338383610b92565b5050565b6107763383610977565b6107925760405162461bcd60e51b815260040161043a90611420565b61061684848484610c61565b60606107a982610812565b60006107c060408051602081019091526000815290565b905060008151116107e0576040518060200160405280600081525061080b565b806107ea84610c94565b6040516020016107fb92919061146e565b6040516020818303038152906040525b9392505050565b6000818152600260205260409020546001600160a01b03166108715760405162461bcd60e51b8152602060048201526018602482015277115490cdcc8c4e881a5b9d985b1a59081d1bdad95b88125160421b604482015260640161043a565b50565b600081815260046020526040902080546001600160a01b0319166001600160a01b03841690811790915581906108a982610668565b6001600160a01b03167f8c5be1e5ebec7d5bd14f71427d1e84f3dd0314c0f7b2291e5b200ac8c7c3b92560405160405180910390a45050565b6000818360405160200161091292919091825260601b6bffffffffffffffffffffffff1916602082015260340190565b60405160208183030381529060405280519060200120905092915050565b600061080b827f000000000000000000000000000000000000000000000000000000000000000085610d92565b610768828260405180602001604052806000815250610da8565b60008061098383610668565b9050806001600160a01b0316846001600160a01b031614806109ca57506001600160a01b0380821660009081526005602090815260408083209388168352929052205460ff165b806109ee5750836001600160a01b03166109e38461039e565b6001600160a01b0316145b949350505050565b826001600160a01b0316610a0982610668565b6001600160a01b031614610a6d5760405162461bcd60e51b815260206004820152602560248201527f4552433732313a207472616e736665722066726f6d20696e636f72726563742060448201526437bbb732b960d91b606482015260840161043a565b6001600160a01b038216610acf5760405162461bcd60e51b8152602060048201526024808201527f4552433732313a207472616e7366657220746f20746865207a65726f206164646044820152637265737360e01b606482015260840161043a565b610ada600082610874565b6001600160a01b0383166000908152600360205260408120805460019290610b039084906114b3565b90915550506001600160a01b0382166000908152600360205260408120805460019290610b319084906114ca565b909155505060008181526002602052604080822080546001600160a01b0319166001600160a01b0386811691821790925591518493918716917fddf252ad1be2c89b69c2b068fc378daa952ba7f163c4a11628f55a4df523b3ef91a4505050565b816001600160a01b0316836001600160a01b03161415610bf45760405162461bcd60e51b815260206004820152601960248201527f4552433732313a20617070726f766520746f2063616c6c657200000000000000604482015260640161043a565b6001600160a01b03838116600081815260056020908152604080832094871680845294825291829020805460ff191686151590811790915591519182527f17307eab39ab6107e8899845ad3d59bd9653f200f220920489ca2b5937696c31910160405180910390a3505050565b610c6c8484846109f6565b610c7884848484610ddb565b6106165760405162461bcd60e51b815260040161043a906114e2565b606081610cb85750506040805180820190915260018152600360fc1b602082015290565b8160005b8115610ce25780610ccc81611534565b9150610cdb9050600a83611565565b9150610cbc565b60008167ffffffffffffffff811115610cfd57610cfd6112c0565b6040519080825280601f01601f191660200182016040528015610d27576020820181803683370190505b5090505b84156109ee57610d3c6001836114b3565b9150610d49600a86611579565b610d549060306114ca565b60f81b818381518110610d6957610d6961158d565b60200101906001600160f81b031916908160001a905350610d8b600a86611565565b9450610d2b565b600082610d9f8584610ee8565b14949350505050565b610db28383610f35565b610dbf6000848484610ddb565b6104db5760405162461bcd60e51b815260040161043a906114e2565b60006001600160a01b0384163b15610edd57604051630a85bd0160e11b81526001600160a01b0385169063150b7a0290610e1f9033908990889088906004016115a3565b602060405180830381600087803b158015610e3957600080fd5b505af1925050508015610e69575060408051601f3d908101601f19168201909252610e66918101906115e0565b60015b610ec3573d808015610e97576040519150601f19603f3d011682016040523d82523d6000602084013e610e9c565b606091505b508051610ebb5760405162461bcd60e51b815260040161043a906114e2565b805181602001fd5b6001600160e01b031916630a85bd0160e11b1490506109ee565b506001949350505050565b600081815b8451811015610f2d57610f1982868381518110610f0c57610f0c61158d565b6020026020010151611077565b915080610f2581611534565b915050610eed565b509392505050565b6001600160a01b038216610f8b5760405162461bcd60e51b815260206004820181905260248201527f4552433732313a206d696e7420746f20746865207a65726f2061646472657373604482015260640161043a565b6000818152600260205260409020546001600160a01b031615610ff05760405162461bcd60e51b815260206004820152601c60248201527f4552433732313a20746f6b656e20616c7265616479206d696e74656400000000604482015260640161043a565b6001600160a01b03821660009081526003602052604081208054600192906110199084906114ca565b909155505060008181526002602052604080822080546001600160a01b0319166001600160a01b03861690811790915590518392907fddf252ad1be2c89b69c2b068fc378daa952ba7f163c4a11628f55a4df523b3ef908290a45050565b600081831061109357600082815260208490526040902061080b565b600083815260208390526040902061080b565b6001600160e01b03198116811461087157600080fd5b6000602082840312156110ce57600080fd5b813561080b816110a6565b60005b838110156110f45781810151838201526020016110dc565b838111156106165750506000910152565b6000815180845261111d8160208601602086016110d9565b601f01601f19169290920160200192915050565b60208152600061080b6020830184611105565b60006020828403121561115657600080fd5b5035919050565b80356001600160a01b038116811461117457600080fd5b919050565b6000806040838503121561118c57600080fd5b6111958361115d565b946020939093013593505050565b600080600080606085870312156111b957600080fd5b6111c28561115d565b935060208501359250604085013567ffffffffffffffff808211156111e657600080fd5b818701915087601f8301126111fa57600080fd5b81358181111561120957600080fd5b8860208260051b850101111561121e57600080fd5b95989497505060200194505050565b60008060006060848603121561124257600080fd5b61124b8461115d565b92506112596020850161115d565b9150604084013590509250925092565b60006020828403121561127b57600080fd5b61080b8261115d565b6000806040838503121561129757600080fd5b6112a08361115d565b9150602083013580151581146112b557600080fd5b809150509250929050565b634e487b7160e01b600052604160045260246000fd5b600080600080608085870312156112ec57600080fd5b6112f58561115d565b93506113036020860161115d565b925060408501359150606085013567ffffffffffffffff8082111561132757600080fd5b818701915087601f83011261133b57600080fd5b81358181111561134d5761134d6112c0565b604051601f8201601f19908116603f01168101908382118183101715611375576113756112c0565b816040528281528a602084870101111561138e57600080fd5b82602086016020830137600060208483010152809550505050505092959194509250565b600080604083850312156113c557600080fd5b6113ce8361115d565b91506113dc6020840161115d565b90509250929050565b600181811c908216806113f957607f821691505b6020821081141561141a57634e487b7160e01b600052602260045260246000fd5b50919050565b6020808252602e908201527f4552433732313a2063616c6c6572206973206e6f7420746f6b656e206f776e6560408201526d1c881b9bdc88185c1c1c9bdd995960921b606082015260800190565b600083516114808184602088016110d9565b8351908301906114948183602088016110d9565b01949350505050565b634e487b7160e01b600052601160045260246000fd5b6000828210156114c5576114c561149d565b500390565b600082198211156114dd576114dd61149d565b500190565b60208082526032908201527f4552433732313a207472616e7366657220746f206e6f6e20455243373231526560408201527131b2b4bb32b91034b6b83632b6b2b73a32b960711b606082015260800190565b60006000198214156115485761154861149d565b5060010190565b634e487b7160e01b600052601260045260246000fd5b6000826115745761157461154f565b500490565b6000826115885761158861154f565b500690565b634e487b7160e01b600052603260045260246000fd5b6001600160a01b03858116825284166020820152604081018390526080606082018190526000906115d690830184611105565b9695505050505050565b6000602082840312156115f257600080fd5b815161080b816110a656fea2646970667358221220dcb7e610011a52dc890ce03e42c3df546fa98b8de790f767c66c5e0574c16d5364736f6c63430008090033",
  "linkReferences": {},
  "deployedLinkReferences": {}
}